:020000040800F2
:10000000700D0020ED010008B550000831480008CF
:10001000B15000083D050008D95E0008000000004E
:10002000000000000000000000000000C5510008B2
:10003000B106000800000000255100081D5200080C
:10004000070200080702000807020008070200086C
:10005000070200080702000807020008070200085C
:10006000070200080702000807020008410500080F
:1000700051050008610500087105000881050008A8
:100080000702000800000000F9020008070200084B
:10009000070200080702000807020008070200081C
:1000A000070200080702000807020008070200080C
:1000B00007020008070200080702000807020008FC
:1000C00007020008070200080702000807020008EC
:1000D00007020008B95E0008C95E000807020008B0
:1000E00007020008070200080702000807020008CC
:1000F00007020008070200080702000800000000CD
:1001000000000000070200080000000007020008CD
:1001100007020008000000000702000807020008AC
:10012000070200080702000807020008070200088B
:10013000070200080000000000000000070200089D
:10014000070200080702000800000000000000008D
:10015000000000000000000000000000000000009F
:10016000000000000000000000000000070200087E
:10017000070200080000000000000000000000006E
:10018000000000000702000800000000000000005E
:10019000000000000000000000000000000000005F
:1001A000000000000000000007020008070200082D
:1001B000070200080702000807020008000000000C
:1001C000000000000702000800000000000000001E
:1001D0000702000807020008DFF80CD000F07AF8E8
:1001E00000480047E9600008700D0020064880477D
:1001F00006480047FEE7FEE7FEE7FEE7FEE7FEE70C
:10020000FEE7FEE7FEE7FEE79D520008D901000881
:100210002DE9F05F0546002092469B46884606463B
:10022000814640241BE0284641464746224600F0CE
:1002300041F853465A46C01A914110D31146184608
:10024000224600F028F82D1A67EB01084F46224697
:100250000120002100F01FF817EB00094E41201E7D
:10026000A4F10104DFDC484631462A464346BDE896
:10027000F09FD2B201E000F8012B491EFBD270477B
:100280000022F6E710B513460A4604461946FFF762
:10029000F0FF204610BD202A04DB203A00FA02F1CC
:1002A000002070479140C2F1200320FA03F3194364
:1002B00090407047202A04DB203A21FA02F0002106
:1002C000704721FA02F3D040C2F120029140084366
:1002D00019467047064C074D06E0E06840F0010300
:1002E00094E8070098471034AC42F6D3FFF778FF44
:1002F000486600086866000880B540F20040C2F217
:10030000000000F0CDFE40F26C40C2F2000000F0B0
:10031000C7FE80BD80B582B001900198806A0090D0
:100320000098C06D10F0500F4BD1FFE70099C86DD9
:1003300040F40070C8650098006800680007002855
:1003400021D5FFE70098006804F00AFBD0B1FFE771
:1003500000980068C0688004002812D4FFE7009964
:10036000C86D20F48070C8650098C06DC004002876
:1003700006D4FFE70099C86D40F00100C865FFE7AB
:10038000FFE7FFE719E000980068C06880070028D1
:1003900012D4FFE70099C86D20F48070C8650098FA
:1003A000C06DC004002806D4FFE70099C86D40F076
:1003B0000100C865FFE7FFE7FFE7009800F046FE91
:1003C00010E00098C06DC006002804D5FFE7009833
:1003D00000F062FE05E00098406D416B019888478F
:1003E000FFE7FFE702B080BD80B582B001900198C1
:1003F000806A00900099C86D40F04000C86500997F
:10040000086E40F004000866009800F045FE02B057
:1004100080BD000080B582B001900198806A009094
:10042000009800F035FE02B080BD000080B584B0B9
:100430000290002000900298006804F069FA0028F9
:1004400074D1FFE70298006880683F21C8F200017C
:1004500008420ED0FFE70299C86D40F01000C86551
:100460000299086E40F00100086601208DF80F0027
:1004700060E00298006804F0E9F940F20030C5F24B
:10048000000004F001FA000200281CD5FFE740F24A
:100490000000C2F200000068800942F66351C0F219
:1004A0003E51A0FB0110800900EB40010C2000EB45
:1004B00081000090FFE7009820B1FFE70098013825
:1004C0000090F8E7FFE701F0FDFF0190FFE70298D9
:1004D00000680068C00740BBFFE70298006804F0AE
:1004E00017FA28B9FFE70298006804F0AFF9FFE7B0
:1004F00001F0E8FF0199401A032815D3FFE702989D
:1005000000680068C00770B9FFE70299C86D40F045
:100510001000C8650299086E40F0010008660120CD
:100520008DF80F0006E0FFE7D1E7FFE700208DF828
:100530000F00FFE79DF80F0004B080BDFFE7FEE766
:1005400080B540F23850C2F2000001F01BFC80BDC3
:1005500080B540F2D840C2F2000001F013FC80BD2B
:1005600080B540F29850C2F2000001F00BFC80BD53
:1005700080B540F2F850C2F2000001F003FC80BDEB
:1005800080B540F25860C2F2000001F0FBFB80BD74
:1005900084B003900398006840F20741C4F202015E
:1005A000884206D8FFE740F60000C4F2020000903F
:1005B00005E040F62000C4F202000090FFE700983A
:1005C00002900398007808384CF6CD41CCF6CC4127
:1005D000A0FB011000090190029803994A6C22F0D7
:1005E000030210448864039940F68000C4F20200BC
:1005F000C864019800F01F01012088400399086534
:1006000004B0704782B00190019800790090009981
:1006100040F6FC00C4F2020000EB8100019948653D
:10062000019940F64010C4F2020088650098013834
:1006300000F01F01012088400199C86502B0704791
:1006400084B003900291019200930398C16C006DF5
:1006500048600398406D28B1FFE70398816DC06D35
:100660004860FFE70398016C406C00F01F02012016
:100670009040486000980399096848600398806832
:10068000102809D1FFE7019803990968886002984A
:1006900003990968C86008E00298039909688860AE
:1006A000019803990968C860FFE704B0704700002B
:1006B0007047000081B0EFF3108072B60090FFE742
:1006C000FEE7000081B0009001B0704781B000905B
:1006D00001B0704781B0009001B0704781B00090C8
:1006E00001B0704781B0009001B0704780B5A4B0F0
:1006F0002290219100208DF883002198006808B194
:10070000FFE7FFE7FFE7229890F85800012804D19F
:10071000FFE702208DF88F009FE02299012081F8E9
:100720005800FFE7FFE700201B901C90229800680C
:10073000B0F1A04F06D1FFE740F20010C5F2000073
:10074000049002E000200490FFE7049878B9FFE7E6
:100750002299C86D40F02000C865FFE7229900206B
:1007600081F85800FFE701208DF88F0075E00498AC
:1007700004F0EEF803902298006804F0E9F80028ED
:1007800057D1FFE70398002853D1FFE740F200302C
:10079000C5F200001F902198006860B3FFE71F9822
:1007A000806820F4604021994968229A92F83820A4
:1007B00041EA423108431F9988604FF0A04004F09D
:1007C000AFF8029040F20010C5F2000004F0A8F863
:1007D00001460298084368B9FFE71F98806840F611
:1007E0001F718843219A11689268114308431F9929
:1007F0008860FFE71CE01F99886820F460408860EB
:100800004FF0A04004F08CF8019040F20010C5F2C7
:10081000000004F085F801460198084338B9FFE765
:100820001F99886840F61F7290438860FFE7FFE7D2
:1008300008E02299C86D40F02000C86501208DF8BD
:100840008300FFE7FFE72299002081F85800FFE7C7
:100850009DF883008DF88F00FFE79DF88F0024B08E
:1008600080BD000080B5C0B020901F9100208DF8A1
:100870007B001B901F98C0680021C4F27F01884252
:1008800001D0FFE700E0FFE7FFE7209890F858006D
:10089000012804D1FFE702208DF88700D2E32099D8
:1008A000012081F85800FFE7FFE72098006804F076
:1008B00047F8002840F0B283FFE7209800681F99AE
:1008C0000A68496804F058F82098006804F038F87D
:1008D0001A902098006803F0FFFF19901A980028DA
:1008E00040F0B881FFE71998002840F0B381FFE796
:1008F0001F988068B0F1004F0ED1FFE72098006884
:100900001F990968002204F063F8209800684FF0EE
:10091000004104F009F90CE0209800681F9A116862
:10092000926804F055F820980068002104F0FCF863
:10093000FFE71F98406920990968C96801F018010C
:10094000890888401D901F98006904281CD0FFE783
:10095000209800681F990A6809691D9B04F08AF8AD
:10096000209800681F9A1169926904F0B5F82098E0
:1009700000681F9A1169127F013AB2FA82F2520995
:10098000520604F095F864E120980068002103F015
:1009900093FF400348B9FFE720980068002103F067
:1009A0008BFFC0F38460189018E020980068002145
:1009B00003F082FF90FAA0F03E903E9820B9FFE746
:1009C00020208DF8FF0005E03E98B0FA80F08DF809
:1009D000FF00FFE79DF8FF001890FFE718981790B9
:1009E0001F980068400330B9FFE71F980068C0F304
:1009F0008460169015E01F98006890FAA0F03C9073
:100A00003C9820B9FFE720208DF8F70005E03C98DE
:100A1000B0FA80F08DF8F700FFE79DF8F700169028
:100A2000FFE717981699884207D1FFE720980068DA
:100A30000022114604F064F8FFE7209800680121C5
:100A400003F03AFF400348B9FFE72098006801210E
:100A500003F032FFC0F38460159018E0209800681E
:100A6000012103F029FF90FAA0F03A903A9820B9BA
:100A7000FFE720208DF8EF0005E03A98B0FA80F00B
:100A80008DF8EF00FFE79DF8EF001590FFE7159850
:100A900014901F980068400330B9FFE71F98006862
:100AA000C0F38460139015E01F98006890FAA0F0DE
:100AB0003890389820B9FFE720208DF8E70005E04E
:100AC0003898B0FA80F08DF8E700FFE79DF8E7006E
:100AD0001390FFE714981399884207D1FFE72098F5
:100AE00000680121002204F00BF8FFE7209800685D
:100AF000022103F0E1FE400348B9FFE720980068B7
:100B0000022103F0D9FEC0F38460129018E020980F
:100B10000068022103F0D0FE90FAA0F036903698DB
:100B200020B9FFE720208DF8DF0005E03698B0FA05
:100B300080F08DF8DF00FFE79DF8DF001290FFE7FF
:100B4000129811901F980068400330B9FFE71F9872
:100B50000068C0F38460109015E01F98006890FA58
:100B6000A0F03490349820B9FFE720208DF8D7000A
:100B700005E03498B0FA80F08DF8D700FFE79DF8D3
:100B8000D7001090FFE711981099884207D1FFE72E
:100B9000209800680221002203F0B2FFFFE72098AE
:100BA0000068032103F088FE400348B9FFE720985E
:100BB0000068032103F080FEC0F384600F9018E00A
:100BC00020980068032103F077FE90FAA0F032909D
:100BD000329820B9FFE720208DF8CF0005E0329849
:100BE000B0FA80F08DF8CF00FFE79DF8CF000F90AE
:100BF000FFE70F980E901F980068400330B9FFE799
:100C00001F980068C0F384600D9015E01F9800687D
:100C100090FAA0F03090309820B9FFE720208DF8AE
:100C2000C70005E03098B0FA80F08DF8C700FFE704
:100C30009DF8C7000D90FFE70E980D99884207D1E7
:100C4000FFE7209800680321002203F059FFFFE727
:100C5000FFE7FFE72098006803F05AFE002840F005
:100C60004481FFE7209800681F9A1168D26803F05A
:100C7000CBFE1F98C0680021C4F27F01884240F07B
:100C80003381FFE7209800680C901F9800684003AC
:100C900030B9FFE71F980068C0F384600B9015E03F
:100CA0001F98006890FAA0F02E902E9820B9FFE7C8
:100CB00020208DF8BF0005E02E98B0FA80F08DF866
:100CC000BF00FFE79DF8BF000B90FFE70B980130D6
:100CD00000F01F0009287DD8FFE71F980068400337
:100CE00030B9FFE71F980068C0F384600A9015E0F0
:100CF0001F98006890FAA0F02C902C9820B9FFE77C
:100D000020208DF8B70005E02C98B0FA80F08DF81F
:100D1000B700FFE79DF8B7000A90FFE70A98013097
:100D200000F01F00800609901F980068400330B94A
:100D3000FFE71F980068C0F38460089015E01F98D3
:100D4000006890FAA0F02A902A9820B9FFE72020A6
:100D50008DF8AF0005E02A98B0FA80F08DF8AF006A
:100D6000FFE79DF8AF000890FFE709980899013167
:100D700001F01F0201219140084307901F9800686D
:100D8000400330B9FFE71F980068C0F38460069005
:100D900015E01F98006890FAA0F02890289820B9D4
:100DA000FFE720208DF8A70005E02898B0FA80F032
:100DB0008DF8A700FFE79DF8A7000690FFE70798CA
:100DC0000699013101F01F0101EB410140EA015098
:100DD000059082E01F980068400330B9FFE71F9834
:100DE0000068C0F38460049015E01F98006890FAD2
:100DF000A0F02690269820B9FFE720208DF89F00CC
:100E000005E02698B0FA80F08DF89F00FFE79DF886
:100E10009F000490FFE70498013000F01F00800657
:100E200003901F980068400330B9FFE71F980068DF
:100E3000C0F38460029015E01F98006890FAA0F05B
:100E40002490249820B9FFE720208DF8970005E032
:100E50002498B0FA80F08DF89700FFE79DF897008E
:100E60000290FFE703980299013101F01F0201216E
:100E70009140084301901F980068400330B9FFE794
:100E80001F980068C0F38460009015E01F98006808
:100E900090FAA0F02290229820B9FFE720208DF848
:100EA0008F0005E02298B0FA80F08DF88F00FFE700
:100EB0009DF88F000090FFE701990098013000F045
:100EC0001F0000EB40020020CFF6206000EB025034
:100ED000084340F000700590FFE70C9805991F9AB1
:100EE000926803F075FDFFE7FFE71F98408848F21E
:100EF0000801084200F09180FFE740F20030C5F29F
:100F0000000003F0C1FC1C901F9800680021CCF287
:100F10002131884208D0FFE71F9800681021C9F2EC
:100F2000C001884232D1FFE79DF872000006002818
:100F30002CD4FFE720980068B0F1A04F25D1FFE73F
:100F40001C9840F4000140F20030C5F2000003F0AC
:100F500083FD40F20000C2F200000068800942F602
:100F60006351C0F23E51A0FB0110800900EB40012B
:100F70000C2000EB81001B90FFE71B9820B1FFE7DE
:100F80001B9801381B90F8E7FFE745E01F980068C1
:100F90000021CCF25271884219D1FFE79DF873000D
:100FA000C007A0B9FFE72098006840F20011C5F221
:100FB000000188420AD0FFE71C9840F0807140F29F
:100FC0000030C5F2000003F047FDFFE723E01F9863
:100FD00000680021CCF6843188421AD1FFE79DF8E1
:100FE00072004006002814D4FFE72098006840F201
:100FF0000011C5F2000188420AD0FFE71C9840F4B6
:10100000800140F20030C5F2000003F025FDFFE74B
:1010100000E0FFE7FFE7FFE7FFE708E02099C86D82
:1010200040F02000C86501208DF87B00FFE7FFE756
:101030002099002081F85800FFE79DF87B008DF88B
:101040008700FFE79DF8870040B080BD81B0009029
:1010500000980068B0F1A04F07D1FFE740F64E01BD
:10106000C2F200010020087010E00098006840F211
:101070000011C5F20001884207D1FFE740F21401D8
:10108000C2F2000101200870FFE7FFE701B07047DE
:1010900081B0009001B0704781B0009001B07047FE
:1010A00080B58EB00D9000200C900D9800680068FF
:1010B0000B900D98006840680A9040F20030C5F22D
:1010C000000003F0F1FB05909DF82C00800700283C
:1010D0001AD5FFE79DF828008007002814D5FFE700
:1010E0000D98C06DC006002806D4FFE70D99C86DA5
:1010F00040F40060C865FFE70D98FFF7E3FA0D982C
:10110000016802200860FFE79DF82C0040070028D6
:1011100006D5FFE70A9800F0040004280ED0FFE788
:101120009DF82C000007002840F19B80FFE79DF808
:1011300028000007002840F19480FFE70D98C06D5B
:10114000C006002806D4FFE70D99C86D40F4007072
:10115000C865FFE70D98006803F002FC002878D00E
:10116000FFE70D98006840F20011C5F200018842C7
:1011700004D1FFE74FF0A040049003E00D98006811
:101180000490FFE704980D99096888420BD0FFE7A7
:10119000059840B1FFE70598052804D0FFE70598BA
:1011A000092805D1FFE70D980068C068079016E090
:1011B0000D98006840F20011C5F20001884204D188
:1011C000FFE74FF0A040039003E00D980068039004
:1011D000FFE7039806900698C0680790FFE7079816
:1011E00000F40050B0F5005F32D0FFE70D980068C2
:1011F0000068000700282AD5FFE70D98006803F073
:101200009FFBC0B9FFE70D980168486820F00C000B
:1012100048600D99C86D20F48070C8650D98C06D48
:10122000C004002806D4FFE70D99C86D40F0010006
:10123000C865FFE70AE00D99C86D40F01000C86569
:101240000D99086E40F001000866FFE7FFE7FFE731
:10125000FFE70D98FFF7FAFE0D9801680C20086073
:10126000FFE79DF82C008006002806D5FFE70A98C6
:1012700000F0200020280ED0FFE79DF82C0040064B
:10128000002840F1B280FFE79DF8280040060028C2
:1012900040F1AB80FFE70D98C06DC006002806D472
:1012A000FFE70D99C86D40F40050C865FFE70D9841
:1012B000006803F019FB09900D98006803F050FBDB
:1012C00008900D98006840F20011C5F200018842B4
:1012D00004D1FFE74FF0A040029003E00D980068B2
:1012E0000290FFE702980D99096888420BD0FFE74A
:1012F000059840B1FFE70598062804D0FFE7059858
:10130000072805D1FFE70D980068C068079016E030
:101310000D98006840F20011C5F20001884204D126
:10132000FFE74FF0A040019003E00D9800680190A6
:10133000FFE7019806900698C0680790FFE70998B4
:1013400000284AD0FFE79DF81F00800700280AD533
:10135000FFE7089800283FD0FFE79DF81D008006B2
:10136000002839D4FFE70D9800680068400600287F
:1013700031D5FFE79DF81E00800600282AD4FFE73C
:101380000D98006803F0A8FAC0B9FFE70D9801684E
:10139000486820F0600048600D99C86D20F48050C6
:1013A000C8650D98C06DC005002806D4FFE70D99EB
:1013B000C86D40F00100C865FFE70AE00D99C86DEF
:1013C00040F01000C8650D99086E40F001000866F5
:1013D000FFE7FFE7FFE7FFE7FFE70D98FFF776F985
:1013E0000D98016860200860FFE79DF82C0000065A
:1013F000002813D5FFE79DF82800000600280DD52A
:10140000FFE70D99C86D40F48030C8650D9800F075
:1014100029FA0D98016880200860FFE79DF82D00EB
:10142000C00798B1FFE79DF82900C00770B1FFE73A
:101430000D99C86D40F40030C8650D98FFF74EF95E
:101440000D9801684FF480700860FFE79DF82D004B
:101450008007002814D5FFE79DF8290080070028A1
:101460000ED5FFE70D99C86D40F48020C8650D9832
:10147000FFF738F90D9801684FF400700860FFE736
:101480009DF82C00C00600283ED5FFE79DF82800F7
:10149000C006002838D5FFE70D98C06B18B9FFE7E4
:1014A00001200C9019E0059860B1FFE740F2003090
:1014B000C5F2000003F0F0F918B1FFE701200C902D
:1014C000FFE709E00D980068C068C00718B1FFE7A2
:1014D00001200C90FFE7FFE7FFE70C9801280ED1F1
:1014E000FFE70D99C86D40F48060C8650D99086EDE
:1014F00040F0020008660D98FFF7CEFDFFE70D985B
:10150000016810200860FFE79DF82D0040070028C3
:1015100019D5FFE79DF829004007002813D5FFE7FC
:101520000D99C86D40F48040C8650D99086E40F073
:10153000080008660D9801684FF4806008600D98F7
:10154000FFF7C8F8FFE70EB080BD000080B588B097
:10155000069000208DF817000190069820B9FFE74B
:1015600001208DF81F0079E10698406940B1FFE73E
:10157000069890F82400012801D1FFE7FFE7FFE774
:101580000698C06D50B9FFE7069800F06FF906990C
:1015900000200866069981F85800FFE70698006861
:1015A00003F0AEF928B1FFE70698006803F042F9AE
:1015B000FFE70698006803F0BBF9F0B9FFE706986B
:1015C000006803F051F940F20000C2F20000006828
:1015D000800942F66351C0F23E51A0FB011081091F
:1015E000022000EB41000190FFE7019820B1FFE7E6
:1015F000019801380190F8E7FFE70698006803F0CA
:1016000097F970B9FFE70699C86D40F01000C865FA
:101610000699086E40F00100086601208DF8170059
:10162000FFE70698006803F08BF903900698C06DF9
:10163000C006002800F10481FFE70398002840F06D
:10164000FF80FFE70698C06D40F0020020F4807034
:101650000699C8650698006803F05AF9D0B9FFE703
:101660004FF0A04003F054F9009040F20010C5F292
:10167000000003F04DF901460098084348B9FFE720
:101680000698416840F20030C5F2000003F0D6F938
:10169000FFE7FFE706994A7FC86B40EA42308A6855
:1016A000CB681843104391F8241040EA014004909D
:1016B000069890F8240001280BD1FFE70698816A6C
:1016C0000020CFF6FE7000EB4141049808430490DF
:1016D000FFE70698C06A50B1FFE70699C86A096B30
:1016E00000F478700143049808430490FFE70698DB
:1016F0000068C06844F20701CFF6F0710840049911
:10170000084306990968C86006980068006920F0D7
:101710004060069A1168526B104308610698006891
:1017200003F0DAF802900398002868D1FFE70298E6
:10173000002864D1FFE70699087F91F838108003EC
:1017400040EA4100049006980068C06844F2020133
:1017500088430499084306990968C8600698006997
:10176000A0B1FFE706980168086940F4803008617D
:1017700006980068D0F8C00043F6FF718843069AC7
:10178000116812691043C1F8C00011E006980168A1
:10179000086920F48030086106980068D0F8C0001D
:1017A00043F6FF71884306990968C1F8C000FFE756
:1017B000069890F84000012819D1FFE706980068C4
:1017C000006940F2FD7120EA0102069B1968586C1D
:1017D000D3F848E0D3F84CC040EA0E0040EA0C00D1
:1017E0001B6D1843104340F00100086106E00698A5
:1017F0000168086920F001000861FFE7FFE706982B
:10180000406901280CD1FFE706980068006B20F0C2
:101810000F00069A1168126A013A1043086306E045
:1018200006980168086B20F00F000863FFE7069830
:10183000C06D40F0010020F002000699C86508E084
:101840000699C86D40F01000C86501208DF817009A
:10185000FFE79DF817008DF81F00FFE79DF81F00B8
:1018600008B080BD81B0009001B0704780B5A2B0D3
:101870002190002020901F901E901D901C900BA87E
:101880004421FEF7FDFC21980068B0F1A04F77D10C
:10189000FFE74FF400400B904FF000501A900BA858
:1018A00001F0AEF918B1FFE7FEF704FFFFE740F2E1
:1018B0001000C2F2000001680131016000680128D7
:1018C00010D1FFE7FFE741F24C00C4F202000168CB
:1018D00041F400510160006800F400500A900A9839
:1018E000FFE7FFE7FFE741F24C00C4F202000168A6
:1018F00041F002010160006800F0020009900998BF
:10190000FFE74FF400601C9003201D90002005901D
:101910001E9040F20040C4F600001CA900F008FC34
:10192000059940F2D840C2F2000006901C22C4F291
:1019300002020260052242608160C1608022026171
:10194000416181612022C261016200F0C7FA18B1D1
:10195000FFE7FEF7AFFEFFE7FFE7219840F2D8412F
:10196000C2F20001416521988862FFE712200490CD
:101970000022114601F040F8049801F033F881E0AC
:101980002198006840F20011C5F20001884278D128
:10199000FFE74FF400400B904FF000501A900BA857
:1019A00001F02EF918B1FFE7FEF784FEFFE740F2E1
:1019B0001000C2F2000001680131016000680128D6
:1019C00010D1FFE7FFE741F24C00C4F202000168CA
:1019D00041F400510160006800F40050089008983C
:1019E000FFE7FFE7FFE741F24C00C4F202000168A5
:1019F00041F001010160006800F0010007900798C4
:101A0000FFE701201C9003201D90002002901E90F3
:101A10004FF090401CA900F08BFB029940F2385027
:101A2000C2F2000003900822C4F2020202602422E3
:101A300042608160C160802202614FF48072426125
:101A40004FF4806282612022C261016200F046FA96
:101A500018B1FFE7FEF72EFEFFE7FFE7219840F2FF
:101A60003851C2F20001416521988862FFE71220D7
:101A700001900022114600F0BFFF019800F0B2FF74
:101A8000FFE7FFE722B080BD80B588B006900591E2
:101A9000049240F20030C5F2000002F005FF02900F
:101AA0000698006802F04CFF002840F0AE80FFE787
:101AB000FFE7069890F85800012804D1FFE70220BC
:101AC0008DF81F00AAE00699012081F85800FFE771
:101AD000FFE7029848B1FFE70298052805D0FFE725
:101AE0000298092840F08680FFE70698FEF79EFCE2
:101AF0008DF80F009DF80F00002873D1FFE70698BE
:101B0000C06D40F4807040F6016188430699C86555
:101B10000698006840F20011C5F20001884204D125
:101B2000FFE74FF0A040019003E0069800680190A5
:101B3000FFE7019806990968884203D0FFE70298F9
:101B400030B9FFE70699C86D20F48010C865FFE73B
:101B50000698C06DC004002806D5FFE70699086EF8
:101B600020F00600086603E0069900200866FFE7FB
:101B70000698416D40F21530C0F60000C862069824
:101B8000416D40F21540C0F6000008630698416DB3
:101B900040F2E930C0F600004863069801681C2056
:101BA0000860FFE70699002081F85800FFE70698D3
:101BB0000168486840F01000486006980168C868ED
:101BC00040F00100C86006980168406D4031059AF8
:101BD000049B00F02FFA8DF80F000698006802F0C1
:101BE000E9FE06E0FFE70699002081F85800FFE7CC
:101BF000FFE709E001208DF80F00FFE706990020BC
:101C000081F85800FFE7FFE703E002208DF80F009E
:101C1000FFE79DF80F008DF81F00FFE79DF81F00FC
:101C200008B080BD82B0019000208DF803000198BB
:101C300090F82500022807D0FFE701990420C86327
:101C400001208DF803002DE001980168086820F05C
:101C50000E0008600198816C086820F480700860AC
:101C600001980168086820F0010008600198016C83
:101C7000406C00F01F020120904048600198C16C48
:101C8000006D48600198406D58B1FFE70198416DC3
:101C9000086820F4807008600198816DC06D48600C
:101CA000FFE7FFE70199012081F82500FFE701998F
:101CB000002081F82400FFE79DF8030002B0704780
:101CC00080B582B0019000208DF80300019890F853
:101CD0002500022811D0FFE701990420C86301996B
:101CE000012081F82500FFE70199002081F82400F8
:101CF000FFE701208DF803003FE0019801680868C4
:101D000020F00E00086001980168086820F00100CA
:101D100008600198816C086820F480700860019860
:101D2000016C406C00F01F02012090404860019857
:101D3000C16C006D48600198406D58B1FFE7019893
:101D4000416D086820F4807008600198816DC06D55
:101D50004860FFE70199012081F82500FFE701991C
:101D6000002081F82400FFE70198806B20B1FFE795
:101D70000198816B8847FFE7FFE79DF8030002B0F9
:101D800080BD000080B584B003900398006C0068AB
:101D90000290039800680068019002980399496CCA
:101DA00001F01F01C8404007002825D5FFE79DF836
:101DB0000400400700281FD5FFE70398006800686B
:101DC0008006002807D4FFE703980168086820F020
:101DD00004000860FFE70398016C406C00F01F02EC
:101DE0000420904048600398006B20B1FFE70398FF
:101DF000016B8847FFE76EE002980399496C01F098
:101E00001F01C840800700282FD5FFE79DF8040078
:101E10008007002829D5FFE703980068006880063E
:101E200000280BD4FFE703980168086820F00A0037
:101E300008600399012081F82500FFE70398016CF1
:101E4000406C00F01F02022090404860FFE70399B9
:101E5000002081F82400FFE70398C06A20B1FFE763
:101E60000398C16A8847FFE734E002980399496CF8
:101E700001F01F01C8400007002829D5FFE79DF8A1
:101E800004000007002823D5FFE7039801680868CD
:101E900020F00E0008600398026C406C00F01F01F7
:101EA000012000FA01F151600399C863039981F898
:101EB0002500FFE70399002081F82400FFE703983D
:101EC000406B20B1FFE70398416B8847FFE700E0D4
:101ED000FFE7FFE7FFE704B080BD000080B584B0F6
:101EE0000290029820B9FFE701208DF80F009CE0D6
:101EF0000298006840F20741C4F20201884218D8F3
:101F0000FFE7029908684FF6F872CBF6FD721044AD
:101F10004CF6CD42CCF6CC42A0FB02026FF003009F
:101F200000EA9200486402990020C4F202000864AA
:101F300018E0029908684FF6F832CBF6FD721044AB
:101F40004CF6CD42CCF6CC42A0FB02026FF003006F
:101F500000EA92004864029940F20040C4F2020094
:101F60000864FFE70299022081F8250002980068C2
:101F700000680190019847F6F0718843019002993A
:101F80008868D1F80CC00B694A6940EA0C00184314
:101F900010438A691043CA691043096A01430198D2
:101FA0000843019001980299096808600298FEF7B9
:101FB000EFFA02988068B0F5804F04D1FFE70299EC
:101FC00000204860FFE702990879896C0860029850
:101FD000C16C006D48600298406888B1FFE70298C4
:101FE000406804280CD8FFE70298FEF70BFB029824
:101FF000416D002008600298816DC06D486007E067
:10200000029900204865029988650299C865FFE732
:1020100002990020C863029A012182F825100299D2
:1020200081F824008DF80F00FFE79DF80F0004B041
:1020300080BD000080B586B00490039102920193A8
:1020400000208DF80300FFE7049890F82400012891
:1020500004D1FFE702208DF8170065E00499012004
:1020600081F82400FFE7FFE7049890F82500012895
:102070004BD1FFE70499022081F825000499002044
:10208000C86304980168086820F00100086004989B
:102090000399029A019BFEF7D3FA0498006B38B1BA
:1020A000FFE704980168086840F00E0008600CE043
:1020B00004980168086820F004000860049801682A
:1020C000086840F00A000860FFE70498806C006828
:1020D000C003002807D5FFE70498816C086840F426
:1020E00080700860FFE70498406D38B1FFE70498FE
:1020F000416D086840F480700860FFE7049801684B
:10210000086840F00100086009E0FFE7049900203A
:1021100081F82400FFE702208DF80300FFE79DF817
:1021200003008DF81700FFE79DF8170006B080BD8B
:102130008BB00A90099100200890FFE70998006889
:102140000899C840002800F0A581FFE709980068B9
:10215000089A01219140084007900798002800F054
:102160009581FFE70998406800F00300012807D037
:10217000FFE70998406800F0030002282FD1FFE72D
:102180000A988068069008984100032000FA01F13F
:102190000698884306900998C0680899490000FA93
:1021A00001F106980843069006980A9988600A98F3
:1021B000406806900899012000FA01F106988843CA
:1021C000069009984068C0F30010089900FA01F1E0
:1021D00006980843069006980A994860FFE7099810
:1021E000406800F00300032818D0FFE70A98C06891
:1021F000069008984100032000FA01F106988843F0
:102200000690099880680899490000FA01F106983B
:102210000843069006980A99C860FFE70998406845
:1022200000F00300022826D1FFE70A9808996FF012
:10223000030202EA51010844006A0690089800F07F
:10224000070081000F2000FA01F1069888430690EC
:1022500009980069089901F00701890000FA01F165
:1022600006980843069006980A99089B02EA5302CA
:1022700011440862FFE70A98006806900898410038
:10228000032000FA01F106988843069009984068F7
:1022900000F003000899490000FA01F1069808438C
:1022A000069006980A9908600998807980070028A6
:1022B00000F0EB80FFE7FFE741F26000C4F20200AC
:1022C000016841F001010160006800F00100059023
:1022D0000598FFE7089820F003000821C4F20101E7
:1022E00040580690089800F0030081000F2000FA83
:1022F00001F10698884306900A98B0F1904F03D1F7
:10230000FFE70020049042E00A9840F20041C4F642
:102310000001884203D1FFE70120039034E00A98CE
:1023200040F60001C4F60001884203D1FFE7022015
:10233000029026E00A9840F60041C4F60001884267
:1023400003D1FFE70320019018E00A9841F2000151
:10235000C4F60001884203D1FFE7042000900AE0A0
:102360000A9941F20042C4F600020620914208BFD9
:1023700005200090FFE700980190FFE70198029088
:10238000FFE702980390FFE703980490FFE70498A3
:10239000089901F00301890000FA01F10698084349
:1023A00006900698089921F003010822C4F2010260
:1023B000885040F20840C4F2010000680690079976
:1023C00006988843069009988079C006002805D5AC
:1023D000FFE70799069808430690FFE7069840F242
:1023E0000841C4F20101086040F20C40C4F201004F
:1023F00000680690079906988843069009988079A6
:102400008006002805D5FFE707990698084306903F
:10241000FFE7069840F20C41C4F20101086040F267
:102420000440C4F2010000680690079906988843AA
:102430000690099880798007002805D5FFE707995D
:10244000069808430690FFE7069840F20441C4F25C
:102450000101086040F20040C4F2010000680690EB
:10246000079906988843069009988079C00728B193
:10247000FFE70799069808430690FFE7069840F2A1
:102480000041C4F201010860FFE7FFE7089801304E
:10249000089053E60BB0704782B00190ADF802107F
:1024A0008DF801209DF8010028B1FFE7BDF802007A
:1024B0000199886104E0BDF8020001998862FFE794
:1024C00002B0704740F66C10C2F20000006870471E
:1024D00083B001900091019890F8410020283BD1F1
:1024E000FFE7FFE7019890F84000012804D1FFE7DB
:1024F00002208DF80B0033E00199012081F84000A3
:10250000FFE7FFE70199242081F841000198016865
:10251000086820F00100086001980168086820F44C
:1025200080500860009A01980168086810430860AC
:1025300001980168086840F00100086001992020B6
:1025400081F84100FFE70199002081F84000FFE792
:1025500000208DF80B0003E002208DF80B00FFE750
:102560009DF80B0003B0704784B00290019102986F
:1025700090F84100202840D1FFE7FFE7029890F84B
:102580004000012804D1FFE702208DF80F0038E059
:102590000299012081F84000FFE7FFE7029924201B
:1025A00081F8410002980168086820F00100086085
:1025B0000298006800680090009820F47060009015
:1025C0000199009840EA012000900098029909685A
:1025D000086002980168086840F0010008600299EC
:1025E000202081F84100FFE70299002081F8400097
:1025F000FFE700208DF80F0003E002208DF80F00A8
:10260000FFE79DF80F0004B07047000080B582B06E
:102610000090009820B9FFE701208DF807007BE0CB
:10262000009890F8410040B9FFE70099002081F838
:102630004000009800F074F8FFE70099242081F82A
:10264000410000980168086820F0010008600098C7
:102650000168406820F0706008610098016888682F
:1026600020F4004088600098C068012807D1FFE787
:1026700000980168806840F40040886006E0009897
:102680000168806840F404408860FFE70098C068F3
:10269000022807D1FFE700980168486840F400600D
:1026A000486006E000980168486820F400604860CF
:1026B000FFE700980168486848F20002C0F2002273
:1026C0001043486000980168C86820F40040C86062
:1026D000009A1168106953699269184340EA022010
:1026E000C860009A1168D069126A104308600098A7
:1026F0000168086840F00100086000990020486403
:10270000009A202182F8411000990863009981F80D
:1027100042008DF80700FFE79DF8070002B080BD7A
:1027200080B59EB01D9000201C901B901A901990AF
:10273000189007A84421FDF7A3FD1D98006847F6EF
:102740000001C4F2000188425ED1FFE74FF48070BF
:10275000079000200F9007A800F052FA18B1FFE789
:10276000FDF7A8FFFFE7FFE741F24C00C4F20200CB
:10277000016841F001010160006800F0010006906D
:102780000698FFE7FFE741F24C00C4F2020001683F
:1027900041F004010160006800F004000590059814
:1027A000FFE74FF4807018901220019019900020DC
:1027B00002901A901B9002201C904FF0904018A994
:1027C0000391FFF7B5FC019A029803994FF4006357
:1027D000189319921A901B9008201C9040F6000044
:1027E000C4F60000FFF7A4FCFFE741F25800C4F272
:1027F0000200016841F080410160006800F0804003
:1028000004900498FFE7FFE71EB080BD80B584B058
:102810000290029820B9FFE701208DF80F0045E0F3
:10282000029801684CF6CC4008600298016845F2B5
:102830005550086002980168406848600298016835
:1028400080688860FFF73EFE0190FFE7029800680D
:10285000C068400798B1FFE7FFF734FE0199401ABE
:1028600032280BD3FFE702980068C068400720B108
:10287000FFE703208DF80F0018E0FFE7E6E7029876
:10288000006800690299C968884205D0FFE702988C
:102890000168C068086105E0029801684AF6AA204C
:1028A0000860FFE700208DF80F00FFE79DF80F009C
:1028B00004B080BD81B00090009801684AF6AA205B
:1028C0000860002001B0704740F20400C2F200002E
:1028D000026840F66C11C2F20001086810440860FA
:1028E0007047000080B582B000208DF807000320FB
:1028F00000F09AF80F2000F00DF820B1FFE701205A
:102900008DF8070002E000F049F8FFE79DF80700A6
:1029100002B080BD80B582B0019000208DF8030028
:1029200040F20400C2F20000006878B3FFE740F212
:102930000000C2F20000006840F20401C2F200018F
:102940000A684FF47A71B1FBF2F1B0FBF1F001F0DB
:10295000BBF9B0B9FFE701980F280DD8FFE701993F
:102960004FF0FF30002200F047F8019840F20801D4
:10297000C2F20001086003E001208DF80300FFE7C8
:1029800003E001208DF80300FFE703E001208DF84C
:102990000300FFE79DF8030002B080BD80B582B060
:1029A000FFE741F26000C4F20200016841F001015A
:1029B0000160006800F0010001900198FFE7FFE767
:1029C00041F25800C4F20200016841F080510160F8
:1029D000006800F0805000900098FFE700F006F9D2
:1029E00002B080BD80B582B08DF807009DF9070068
:1029F00003F074FA02B080BD80B586B08DF8170080
:102A00000491039203F082FA02909DF9170001905D
:102A100002980499039A02F04FFB0146019803F0D3
:102A20007DFA06B080BD000080B582B001900198AB
:102A300003F096FA02B080BD85B003900398002899
:102A40005ED1FFE747F20000C4F20000006800F426
:102A5000C060B0F5806F49D1FFE747F28001C4F252
:102A60000001086820F48070086047F20002C4F298
:102A700000021168012060F34A21116040F2000158
:102A8000C2F200010968322251434DF68362C4F25A
:102A90001B32A1FB022100EB91400290FFE747F2BD
:102AA0001400C4F2000001680020490500290190CB
:102AB00006D5FFE70298002818BF01200190FFE724
:102AC0000198C00720B1FFE7029801380290E6E7BD
:102AD00047F21400C4F2000000684005002804D545
:102AE000FFE703208DF813007CE008E047F2800147
:102AF000C4F20001086820F480700860FFE76DE010
:102B00000398B0F5007F5ED1FFE747F20000C4F202
:102B10000000006800F4C060B0F5806F49D1FFE7A5
:102B200047F28001C4F20001086840F48070086038
:102B300047F20002C4F200021168012060F34A214A
:102B4000116040F20001C2F20001096832225143D3
:102B50004DF68362C4F21B32A1FB022100EB9140CF
:102B60000290FFE747F21400C4F200000168002061
:102B700049050029009006D5FFE70298002818BFF4
:102B800001200090FFE70098C00720B1FFE70298FE
:102B900001380290E6E747F21400C4F20000006832
:102BA0004005002804D5FFE703208DF8130019E045
:102BB00008E047F28001C4F20001086840F4807028
:102BC0000860FFE709E047F20001C4F2000108686D
:102BD000022262F34A200860FFE7FFE700208DF839
:102BE0001300FFE79DF8130005B0704747F2080196
:102BF000C4F20001086840F480400860704700009B
:102C000080B586B0059000208DF80B008DF80A0085
:102C1000059880780007002840F1B580FFE7002084
:102C20008DF8090041F25800C4F202000068C000AB
:102C3000002813D4FFE7FFE741F25800C4F2020076
:102C4000016841F080510160006800F080500190FF
:102C50000198FFE701208DF80900FFE747F2000126
:102C6000C4F20001086840F480700860FFF72AFC95
:102C70000390FFE747F20000C4F200000068C005BF
:102C800000280CD4FFE7FFF71DFC0399401A032826
:102C900004D3FFE703208DF80B0000E0EAE79DF87E
:102CA0000B0000285BD1FFE741F29000C4F2020064
:102CB000006800F4407004900498C8B1FFE70498DD
:102CC0000599096C884213D0FFE741F29001C4F2E4
:102CD0000201086820F440700490086840F48030D5
:102CE0000860086820F48030086004980860FFE7F6
:102CF0009DF81000C007E0B1FFE7FFF7E3FB03908A
:102D0000FFE741F29000C4F202000068800700284B
:102D10000ED4FFE7FFF7D6FB0399401A41F2893141
:102D2000884204D3FFE703208DF80B0000E0E8E7BA
:102D3000FFE79DF80B0060B9FFE741F29001C4F294
:102D40000201086820F44070059A126C1043086074
:102D500004E09DF80B008DF80A00FFE704E09DF801
:102D60000B008DF80A00FFE79DF80900012809D142
:102D7000FFE741F25801C4F20201086820F08050D8
:102D80000860FFE7FFE705980078C00760B1FFE73C
:102D900041F28801C4F20201086820F00300059A9C
:102DA000526810430860FFE7059800788007002804
:102DB0000CD5FFE741F28801C4F20201086820F057
:102DC0000C00059A926810430860FFE705980078A8
:102DD000400700280CD5FFE741F28801C4F2020148
:102DE000086820F03000059AD26810430860FFE7B9
:102DF00005980078000700280CD5FFE741F288010C
:102E0000C4F20201086820F0C000059A126910435C
:102E10000860FFE705980078800600280CD5FFE7DA
:102E200041F28801C4F20201086820F44060059A6A
:102E3000526910430860FFE70598007840060028B3
:102E40000CD5FFE741F28801C4F20201086820F4C2
:102E50004050059A926910430860FFE70598007892
:102E6000000600280CD5FFE741F28801C4F20201F8
:102E7000086820F44040059AD26910430860FFE7D3
:102E800005984078C00760B1FFE741F28801C4F2BD
:102E90000201086820F44030059A126A1043086065
:102EA000FFE705984078800700280CD5FFE741F23E
:102EB0008801C4F20201086820F44020059A526A91
:102EC00010430860FFE705984078400700281BD5AD
:102ED000FFE741F28801C4F20201086820F44010C3
:102EE000059A926A104308600598806AB0F5801FC1
:102EF00009D1FFE741F20C01C4F20201086840F475
:102F000080100860FFE7FFE7059840780007002879
:102F10001BD5FFE741F28801C4F20201086820F4E2
:102F20004000059AD26A104308600598C06AB0F55F
:102F3000800F09D1FFE741F20C01C4F202010868D9
:102F400040F480100860FFE7FFE705984078C0066E
:102F500000281BD5FFE741F28801C4F2020108688E
:102F600020F04070059A126B104308600598006BC2
:102F7000B0F1807F09D1FFE741F20C01C4F20201F8
:102F8000086840F480100860FFE7FFE70598407884
:102F9000800600281BD5FFE741F28801C4F2020138
:102FA000086820F04060059A526B1043086005984D
:102FB000406BB0F1006F09D1FFE741F20C01C4F2A0
:102FC0000201086840F480100860FFE7FFE70598F9
:102FD0004078400600281BD5FFE741F28801C4F283
:102FE0000201086820F04060059A926B1043086067
:102FF0000598806BB0F1006F09D1FFE741F20C0139
:10300000C4F20201086840F480100860FFE7FFE79F
:1030100005984078000600281BD5FFE741F288019B
:10302000C4F20201086820F04050059AD26B1043A8
:1030300008600598C06BB0F1805F09D1FFE741F2ED
:103040000C01C4F20201086840F480300860FFE718
:10305000FFE79DF80A0006B080BD000080B586B08D
:103060000490039100200090049820B9FFE701200C
:103070008DF8170081E1039842F20001C4F20201C9
:10308000096801F00F01884216D9FFE742F20000FB
:10309000C4F20200016821F00F01039A114301609C
:1030A000006800F00F000399884204D0FFE7012078
:1030B0008DF8170061E1FFE704980078C007002849
:1030C00000F0A380FFE704984068032839D1FFE7A8
:1030D00041F20000C4F2020000688001002804D41C
:1030E000FFE701208DF8170047E102F01DF801907D
:1030F00001984BF20141C0F2C441884220D3FFE75E
:1031000041F20800C4F20200006810F0F00F0AD08B
:10311000FFE7049800788007002810D5FFE704989F
:10312000806860B9FFE741F20801C4F20201086853
:10313000082262F30710086080200090FFE7FFE795
:1031400038E00498406802280ED1FFE741F2000001
:10315000C4F2020000688003002804D4FFE70120C5
:103160008DF8170009E10DE041F20000C4F2020001
:1031700000684005002804D4FFE701208DF81700FF
:10318000FBE0FFE700F02CF9019001984BF20141C0
:10319000C0F2C44188420CD3FFE741F20801C4F2F7
:1031A00002010868082262F307100860802000907E
:1031B000FFE7FFE741F20801C4F20201086820F0CE
:1031C0000300049A526810430860FFF77BF90290ED
:1031D000FFE741F20800C4F20200006800F00C00B2
:1031E00004994968B0EB810F0ED0FFE7FFF76AF949
:1031F0000299401A41F28931884204D3FFE7032043
:103200008DF81700B9E0E4E7FFE70498007880073D
:1032100000282CD5FFE7049800784007002809D53E
:10322000FFE741F20801C4F20201086840F4E060DF
:103230000860FFE704980078000700280BD5FFE737
:1032400041F20801C4F20201086840F4E06020F491
:1032500060500860FFE741F20801C4F2020108680B
:1032600020F0F000049A9268104308600DE0009886
:10327000802809D1FFE741F20801C4F20201086881
:1032800020F0F0000860FFE7FFE7039842F200013A
:10329000C4F20201096801F00F01884228D2FFE759
:1032A00042F20001C4F20201086820F00F00039A04
:1032B00010430860FFF706F90290FFE742F20000B2
:1032C000C4F20200006800F00F00039988420ED09B
:1032D000FFE7FFF7F7F80299401A41F28931884277
:1032E00004D3FFE703208DF8170046E0E6E7FFE789
:1032F00004980078400700280CD5FFE741F2080148
:10330000C4F20201086820F4E060049AD268104315
:103310000860FFE704980078000700280DD5FFE754
:1033200041F20801C4F20201086820F46050049AD6
:10333000126940EAC2000860FFE700F051F841F26C
:103340000801C4F202010968C9B20A0946F2F8315B
:10335000C0F60001895C01F01F01C84040F2000185
:10336000C2F20001086040F20800C2F200000068EA
:10337000FFF7D0FA8DF81700FFE79DF8170006B0A9
:1033800080BD000040F20000C2F2000000687047FB
:1033900080B5FFF7F7FF41F20801C4F202010968A6
:1033A000C1F3022246F20841C0F60001895C01F037
:1033B0001F01C84080BD000080B5FFF7E3FF41F268
:1033C0000801C4F202010968C1F3C22246F20841B1
:1033D000C0F60001895C01F01F01C84080BD0000FB
:1033E00086B041F20800C4F20200006800F00C0050
:1033F000042806D1FFE742F20040C0F2F400019039
:1034000069E041F20800C4F20200006800F00C001C
:10341000082806D1FFE747F64000C0F27D10019072
:1034200058E041F20800C4F20200006800F00C000D
:103430000C284BD1FFE741F20C00C4F202000168F6
:1034400001F0030104910068C1B2012000EB1110EA
:10345000029004980090022815D0FFE700980328F6
:1034600012D1FFE7029947F64000C0F27D10B0FB91
:10347000F1F041F20C01C4F202010968C1F3062126
:103480004843059011E0FFE7029942F20040C0F284
:10349000F400B0FBF1F041F20C01C4F20201096842
:1034A000C1F3062148430590FFE741F20C00C4F246
:1034B0000200006800F0C061022000EB1160039080
:1034C00005980399B0FBF1F0019002E00020019013
:1034D000FFE7FFE7FFE7019806B07047B0B588B097
:1034E0000690069820B9FFE701208DF81F00CCE375
:1034F00006980078C007002800F09B80FFE741F2A3
:103500000800C4F20200006800F00C00049041F2D0
:103510000C00C4F20200006800F00300039004985D
:103520000C2804D1FFE70398032804D0FFE7049890
:10353000082812D1FFE741F20000C4F2020000683F
:103540008003002808D5FFE70698406820B9FFE708
:1035500001208DF81F0098E36AE0FFE706984068B5
:10356000B0F5803F09D1FFE741F20001C4F202014A
:10357000086840F48030086020E006984068B0F5A4
:10358000A02F0DD1FFE741F20001C4F2020108684B
:1035900040F480200860086840F4803008600CE047
:1035A00041F20001C4F20201086820F48030086092
:1035B000086820F480200860FFE7FFE7FFE706982F
:1035C0004068D0B1FFE7FEF77DFF0590FFE741F2CD
:1035D0000000C4F202000068800300280CD4FFE75A
:1035E000FEF770FF0599401A652804D3FFE7032012
:1035F0008DF81F0049E3EAE719E0FEF763FF059045
:10360000FFE741F20000C4F20200006880030028D6
:103610000CD5FFE7FEF756FF0599401A652804D33D
:10362000FFE703208DF81F002FE3EAE7FFE7FFE73E
:10363000FFE7069800788007002840F19F80FFE7A9
:1036400041F20800C4F20200006800F00C0004908F
:1036500041F20C00C4F20200006800F00300039085
:1036600004980C2804D1FFE70398022804D0FFE750
:10367000049804282CD1FFE741F20000C4F20200B4
:1036800000684005002808D5FFE70698C06820B903
:10369000FFE701208DF81F00F7E241F20401C4F2B8
:1036A0000201086820F0FE40069A126940EA0260B2
:1036B000086040F20800C2F200000068FFF72AF933
:1036C00020B1FFE701208DF81F00DEE2FFE754E0A4
:1036D0000698C06870B3FFE741F20001C4F202012E
:1036E000086840F480700860FEF7ECFE0590FFE784
:1036F00041F20000C4F202000068400500280CD42A
:10370000FFE7FEF7DFFE0599401A032804D3FFE721
:1037100003208DF81F00B8E2EAE741F20401C4F289
:103720000201086820F0FE40069A126940EA026031
:10373000086021E041F20001C4F20201086820F4AF
:1037400080700860FEF7BEFE0590FFE741F20000C2
:10375000C4F202000068400500280CD5FFE7FEF720
:10376000B1FE0599401A032804D3FFE703208DF822
:103770001F008AE2EAE7FFE7FFE7FFE70698007825
:103780000007002849D5FFE70698406910B3FFE716
:1037900041F29401C4F20201086840F0010008609F
:1037A000FEF790FE0590FFE741F29400C4F202009C
:1037B0000068800700280CD4FFE7FEF783FE059918
:1037C000401A032804D3FFE703208DF81F005CE2B2
:1037D000EAE721E041F29401C4F20201086820F016
:1037E00001000860FEF76EFE0590FFE741F29400CD
:1037F000C4F202000068800700280CD5FFE7FEF73E
:1038000061FE0599401A032804D3FFE703208DF8D1
:103810001F003AE2EAE7FFE7FFE706980078400773
:10382000002840F1C680FFE700208DF80B0041F230
:103830005800C4F202000068C000002813D4FFE75B
:10384000FFE741F25800C4F20200016841F08051E4
:103850000160006800F0805001900198FFE70120AE
:103860008DF80B00FFE747F20000C4F2000000688B
:10387000C005002822D4FFE747F20001C4F200018E
:10388000086840F480700860FEF71CFE0590FFE7B2
:1038900047F20000C4F200000068C00500280CD404
:1038A000FFE7FEF70FFE0599401A032804D3FFE750
:1038B00003208DF81F00E8E1EAE7FFE7FFE706983D
:1038C0008068012809D1FFE741F29001C4F20201AA
:1038D000086840F0010008601FE00698806805282D
:1038E0000DD1FFE741F29001C4F20201086840F0F7
:1038F00004000860086840F0010008600CE041F234
:103900009001C4F20201086820F001000860086814
:1039100020F004000860FFE7FFE7FFE706988068F3
:10392000E0B1FFE7FEF7CEFD0590FFE741F2900022
:10393000C4F202000068800700280ED4FFE7FEF7FB
:10394000C1FD0599401A41F28931884204D3FFE74D
:1039500003208DF81F0098E1E8E71BE0FEF7B2FDB9
:103960000590FFE741F29000C4F202000068800772
:1039700000280ED5FFE7FEF7A5FD0599401A41F294
:103980008931884204D3FFE703208DF81F007CE1D2
:10399000E8E7FFE79DF80B00012809D1FFE741F2B6
:1039A0005801C4F20201086820F080500860FFE767
:1039B000FFE7069800788006002849D5FFE70698BB
:1039C000806910B3FFE741F29801C4F20201086870
:1039D00040F001000860FEF775FD0590FFE741F239
:1039E0009800C4F202000068800700280CD4FFE7AA
:1039F000FEF768FD0599401A032804D3FFE703206A
:103A00008DF81F0041E1EAE721E041F29801C4F29C
:103A10000201086820F001000860FEF753FD0590E0
:103A2000FFE741F29800C4F2020000688007002816
:103A30000CD5FFE7FEF746FD0599401A032804D38D
:103A4000FFE703208DF81F001FE1EAE7FFE7FFE72C
:103A50000698C069002800F01481FFE741F20800D1
:103A6000C4F20200006800F00C000C2800F0B080E6
:103A7000FFE70698C06902287CD1FFE741F2000108
:103A8000C4F20201086820F080700860FEF71AFD99
:103A90000590FFE741F20000C4F2020000688001D7
:103AA00000280CD5FFE7FEF70DFD0599401A032805
:103AB00004D3FFE703208DF81F00E6E0EAE741F2B8
:103AC0000C01C4F20201086848F20C02C0F29F1215
:103AD0001040DDF818C0DCF82020DCF82450DCF8B9
:103AE00028E0DCF82C306FF00F0404EB05142243BF
:103AF00042EA0E22DCF8304040F2000ECFF6E07EC3
:103B00000EEA045EAEF5001E42EA0E02DCF834E076
:103B10004FF07E4C0CEA0E6C0CF17E4C42EA0C022B
:103B200042EAC3621043086041F20002C4F202029A
:103B3000106840F080701060086840F08070086085
:103B4000FEF7C0FC0590FFE741F20000C4F202005E
:103B50000068800100280CD4FFE7FEF7B3FC05994C
:103B6000401A032804D3FFE703208DF81F008CE0E0
:103B7000EAE72CE041F20001C4F20201086820F0FB
:103B800080700860FEF79EFC0590FFE741F20000A0
:103B9000C4F202000068800100280CD5FFE7FEF7A0
:103BA00091FC0599401A032804D3FFE703208DF800
:103BB0001F006AE0EAE741F20C01C4F20201086862
:103BC0004FF6FC72CFF6EE6210400860FFE757E058
:103BD0000698C069012804D1FFE701208DF81F0075
:103BE00053E041F20C00C4F2020000680390039815
:103BF00000F003000699096A88423BD1FFE7039869
:103C000000F0F00006994A6A6FF00F0101EB021113
:103C100088422FD1FFE7039800F4FE400699896A95
:103C2000B0EB012F26D1FFE7039800F0784006990A
:103C3000C96AB0EBC16F1DD1FFE7039800F4C00063
:103C400006990A6B0021CFF6E07101EA0251A1F555
:103C5000001188420ED1FFE7039800F0C06006997A
:103C60004A6B4FF07E4101EA026101F17E418842D8
:103C700004D0FFE701208DF81F0006E0FFE7FFE713
:103C8000FFE700208DF81F00FFE79DF81F0008B038
:103C9000B0BD000081B000900098042809D1FFE772
:103CA0004EF21001CEF20001086840F004000860F6
:103CB00008E04EF21001CEF20001086820F0040086
:103CC0000860FFE701B0704780B582B001900198AD
:103CD00001F07AFA02B080BD83B00190FFE701984D
:103CE00090F88400012804D1FFE702208DF80B0032
:103CF0002CE00199012081F88400FFE7FFE701999A
:103D00002420C1F88800019800680068009001989C
:103D10000168086820F001000860009820F0005059
:103D20000090019900204866009801990968086090
:103D300001992020C1F88800FFE70199002081F84F
:103D40008400FFE700208DF80B00FFE79DF80B00D3
:103D500003B0704782B00190ADF8021002B0704716
:103D600081B0009001B0704780B584B0029001919D
:103D7000FFE7029890F88400012804D1FFE70220B1
:103D80008DF80F0032E00299012081F88400FFE7EE
:103D9000FFE702992420C1F88800029800680068B3
:103DA000009002980168086820F0010008600298FD
:103DB0000068806820F060600199084302990968F2
:103DC0008860029801F074FA009802990968086006
:103DD00002992020C1F88800FFE70299002081F8AD
:103DE0008400FFE700208DF80F00FFE79DF80F002B
:103DF00004B080BD80B584B002900191FFE70298C5
:103E000090F88400012804D1FFE702208DF80F000C
:103E100032E00299012081F88400FFE7FFE7029970
:103E20002420C1F888000298006800680090029879
:103E30000168086820F00100086002980068806846
:103E400020F060400199084302990968886002984F
:103E500001F02EFA00980299096808600299202062
:103E6000C1F88800FFE70299002081F88400FFE78D
:103E700000208DF80F00FFE79DF80F0004B080BD13
:103E800081B0009001B0704781B0009001B07047E0
:103E900081B0009001B0704780B590B00F900F983E
:103EA0000068C0690E900F98006800680D900F9828
:103EB000006880680C900E9840F60F0108400B9047
:103EC0000B98E0B9FFE79DF838008006002815D56B
:103ED000FFE79DF834008006002806D4FFE79DF830
:103EE0003300C006002809D5FFE70F98406F20B1C6
:103EF000FFE70F98416F8847FFE796E2FFE70B98CF
:103F0000002800F00C81FFE70C980121C1F20001AC
:103F1000084209D1FFE70D9840F22011C0F200419C
:103F2000084200F0FC80FFE79DF83800C00788B128
:103F3000FFE79DF83500C00760B1FFE70F98016803
:103F4000012008620F99D1F8900040F00100C1F8FB
:103F50009000FFE79DF838008007002811D5FFE7A3
:103F60009DF83000C00760B1FFE70F98016802209C
:103F700008620F99D1F8900040F00400C1F8900059
:103F8000FFE79DF838004007002811D5FFE79DF8AE
:103F90003000C00760B1FFE70F9801680420086295
:103FA0000F99D1F8900040F00200C1F89000FFE7AF
:103FB0009DF838000007002819D5FFE79DF8340068
:103FC0008006002807D4FFE70C980121C1F2000108
:103FD00008420CD0FFE70F980168082008620F998B
:103FE000D1F8900040F00800C1F89000FFE79DF87C
:103FF00039000007002813D5FFE79DF83700400778
:1040000000280DD5FFE70F9801684FF400600862A3
:104010000F99D1F8900040F02000C1F89000FFE720
:104020000F98D0F89000002878D0FFE79DF838006E
:104030008006002815D5FFE79DF83400800600288B
:1040400006D4FFE79DF83300C006002809D5FFE736
:104050000F98406F20B1FFE70F98416F8847FFE747
:10406000FFE70F98D0F890000A900F9800688068DA
:1040700000F04000402806D0FFE79DF8280010F02F
:10408000280F42D0FFE70F9801F038FB0F98006827
:1040900080684006002833D5FFE7FFE7FFE70F9869
:1040A000006850E8020F20F040000990FFE70999EE
:1040B0000F98026842E802100028F0D1FFE7FFE7FE
:1040C0000F98D0F88000B0B1FFE70F98D0F88010BB
:1040D00045F2C950C0F6000088630F98D0F8800000
:1040E000FDF7EEFD30B1FFE70F98D0F88000816B4F
:1040F0008847FFE703E00F98FFF7CAFEFFE703E0FA
:104100000F98FFF7C5FEFFE707E00F98FFF7C0FE27
:104110000F990020C1F89000FFE7FFE785E10F98B5
:10412000C06E012840F02281FFE79DF83800C006EC
:10413000002840F11B81FFE79DF83400C0060028ED
:1041400040F11481FFE70F980168102008620F9872
:10415000006880684006002840F1A680FFE70F98BD
:10416000D0F8800000684068ADF82200BDF8220059
:1041700000287CD0FFE7BDF822000F99B1F85C1051
:10418000884274DAFFE7BDF822000F99A1F85E00BB
:104190000F98D0F88000006800688006002859D485
:1041A000FFE7FFE7FFE70F98006850E8000F20F4F3
:1041B00080700790FFE707990F98026842E80010A7
:1041C0000028F0D1FFE7FFE7FFE7FFE70F9800685F
:1041D00050E8020F20F001000690FFE706990F98C3
:1041E000026842E802100028F0D1FFE7FFE7FFE78E
:1041F000FFE70F98006850E8020F20F0400005909C
:10420000FFE705990F98026842E802100028F0D1F4
:10421000FFE7FFE70F992020C1F88C000F990020DD
:10422000C866FFE7FFE70F98006850E8000F20F02E
:1042300010000490FFE704990F98026842E800100C
:104240000028F0D1FFE7FFE70F98D0F88000FDF7D6
:10425000E9FCFFE70F99022008670F98B0F85C109F
:10426000B0F85E20891A89B2FFF774FD1BE0BDF833
:1042700022000F99B1F85C10884213D1FFE70F9824
:10428000D0F88000006800688006002809D5FFE7A4
:104290000F99022008670F98B0F85C10FFF75AFDDD
:1042A000FFE7FFE7FFE7C0E00F99B1F85C00B1F866
:1042B0005E10401AADF80E000F98B0F85E000028AE
:1042C00053D0FFE7BDF80E0000284ED0FFE7FFE710
:1042D000FFE70F98006850E8000F20F490700290FC
:1042E000FFE702990F98026842E800100028F0D119
:1042F000FFE7FFE7FFE7FFE70F98006850E8020FCE
:104300004FF6FE71CEF6FF7108400190FFE701996C
:104310000F98026842E802100028EDD1FFE7FFE79E
:104320000F992020C1F88C000F990020C8660F99C2
:104330004867FFE7FFE70F98006850E8000F20F09C
:1043400010000090FFE700990F98026842E8001003
:104350000028F0D1FFE7FFE70F99022008670F98C8
:10436000BDF80E10FFF7F6FCFFE75EE09DF83A009F
:10437000C00600280FD5FFE79DF832004006002850
:1043800009D5FFE70F9801684FF4801008620F9875
:10439000FFF77AFD49E09DF838000006002815D5A2
:1043A000FFE79DF834000006002806D4FFE79DF8DB
:1043B00032000006002809D5FFE70F98806F20B172
:1043C000FFE70F98816F8847FFE72EE09DF83800E0
:1043D000400600280AD5FFE79DF834004006002873
:1043E00004D5FFE70F9801F0D9F91EE09DF83A00D7
:1043F000000600280AD5FFE79DF837004006002890
:1044000004D5FFE70F98FFF73BFD0EE09DF83B005A
:10441000C00750B1FFE79DF837000006002804D51B
:10442000FFE70F98FFF79CFCFFE710B080BD00008E
:1044300080B582B00090009820B9FFE701208DF888
:10444000070046E00098806908B1FFE700E0FFE759
:104450000098D0F8880040B9FFE70099002081F863
:104460008400009800F03AF8FFE700992420C1F892
:10447000880000980168086820F001000860009832
:10448000806A20B1FFE7009800F056FFFFE7009830
:1044900001F0D4F9012804D1FFE701208DF80700CD
:1044A00017E000980168486820F490404860009840
:1044B0000168886820F02A00886000980168086810
:1044C00040F001000860009800F0DAFF8DF8070066
:1044D000FFE79DF8070002B080BD000080B5A2B0E4
:1044E0002190002020901F901E901D901C900BA8E2
:1044F0004421FBF7C5FE2198006843F60001C4F291
:10450000010188426AD1FFE701200B9000200C9046
:104510000BA8FEF775FB18B1FFE7FCF7CBF8FFE738
:10452000FFE741F26000C4F20200016841F48041FB
:104530000160006800F480400A900A98FFE7FFE7F6
:1045400041F24C00C4F20200016841F00101016037
:10455000006800F0010009900998FFE74FF4C0607F
:104560001C9002201D90002005901E901F90072097
:1045700020904FF090401CA9FDF7DAFD059940F21C
:104580009850C2F2000006903022C4F2020202608B
:104590001922426010228260C16080220261416162
:1045A0008161C1610162FDF799FC18B1FFE7FCF779
:1045B00081F8FFE7FFE7219840F29851C2F200012D
:1045C000C16721988862FFE72520049000221146E8
:1045D000FEF712FA0498FEF705FA9BE021980068AE
:1045E00044F20041C4F20001884240F09280FFE7AB
:1045F00002200B9000200D900BA8FEF701FB18B1D4
:10460000FFE7FCF757F8FFE7FFE741F25800C4F275
:104610000200016841F400310160006800F40030DC
:1046200008900898FFE7FFE741F24C00C4F202004F
:10463000016841F002010160006800F0020007908B
:104640000798FFE718201C9002201D900020029080
:104650001E901F900720209040F20040C4F60000FA
:104660001CA9FDF765FD029940F2F850C2F2000066
:1046700003904422C4F2020202601A224260816066
:10468000C1608022026141618161C1610162FDF707
:1046900025FC18B1FFE7FCF70DF8FFE7FFE72198CD
:1046A00040F2F851C2F20001C0F8801021988862EF
:1046B000FFE740F25860C2F2000001905821C4F2B6
:1046C000020101601B214160102181600021C16055
:1046D0008022026141618161C1610162FDF7FEFBDF
:1046E00018B1FFE7FBF7E6FFFFE7FFE7219840F28D
:1046F0005861C2F20001C16721988862FFE7262055
:10470000009000221146FEF777F90098FEF76AF94B
:10471000FFE7FFE722B080BD80B586B0049003912B
:10472000ADF80A200498D0F88800202870D1FFE75F
:10473000039820B1FFE7BDF80A0020B9FFE7012088
:104740008DF8170068E0039804990865BDF80A0021
:104750000499A1F85400BDF80A000499A1F8560084
:1047600004990020C1F8900004992120C1F8880024
:104770000498C06F88B3FFE70498C16F45F2696081
:10478000C0F60000C8620498C16F45F2E560C0F64B
:10479000000008630498C16F45F2E950C0F60000BC
:1047A00048630498C16F0020886304980268016D13
:1047B000C06F2832BDF80A30FDF73CFC60B1FFE75E
:1047C00004991020C1F8900004992020C1F88800B5
:1047D00001208DF817001FE0FFE7049801684020D2
:1047E0000862FFE7FFE70498006850E8020F40F016
:1047F00080000190FFE701990498026842E80210E6
:104800000028F0D1FFE7FFE700208DF8170003E054
:1048100002208DF81700FFE79DF8170006B080BD55
:1048200081B0009001B0704781B0009001B0704736
:10483000FFE7FEE781B00090009988684FF6C072EC
:10484000C5F6FF721040886001B0704781B00090DB
:10485000009880684FF6C071C7F6FF7108400130BC
:104860000099886001B0704781B00090009880681E
:1048700040F080504FF6C071C7F6FF7108400099B4
:10488000886001B07047000081B000900098806897
:1048900000F0E07001B0704781B00090009880682F
:1048A00000F4604001B0704781B0009000988068CB
:1048B00000F01F0001B0704783B002900191029890
:1048C000019900EB8100603000900098006800F0D2
:1048D000F84003B07047000081B0009000988068F5
:1048E000C0F3C00001B0704781B000900098C06C68
:1048F00000F4C070B0FA80F0400901B070470000C9
:1049000081B0009000988068C0F3407001B070479B
:1049100081B000900098806800F0010001B07047FD
:1049200081B000900098806800F0010001B07047ED
:1049300081B0009000988068C0F3007001B07047AB
:1049400081B0009000988068C0F3800001B070478B
:1049500081B0009000988068C0F3800001B070477B
:1049600081B000900098C06800F44060B0FA80F018
:10497000400901B07047000084B003900291019299
:104980000398029901F4407100EB911030300090CF
:1049900000980068029901F01F021F21914088438E
:1049A0000199C1F38461914008430099086004B003
:1049B0007047000081B00090009880684FF6C07189
:1049C000C7F6FF71084004300099886001B0704755
:1049D00084B00390029101920398029901F0007152
:1049E00000EBD15014300090009800680299C1F398
:1049F000045207219140884301999140084300994E
:104A0000086004B07047000083B0029001910092EA
:104A10000298D0F8B00001996FF3DF418843009A03
:104A200002F018034FF6FF72C0F20702DA4011409D
:104A300008440299C1F8B00003B0704782B00190F9
:104A400000910198806820F47C1000990843019936
:104A5000886002B07047000082B001900091019818
:104A6000806820F0E070009908430199886002B0E6
:104A70007047000085B0049003910292019304985E
:104A8000039900EB810060300090009800684FF2BD
:104A90000001C0F2FF310140029800F0F840019A95
:104AA0001043084340F000400099086005B070478B
:104AB00084B00390029101920398029900EB810067
:104AC000603000900098006820F000700199084361
:104AD0000099086004B0704784B00390029101927D
:104AE0000398029900EB8100603000900098006804
:104AF00020F08070019908430099086004B0704765
:104B000084B00390029101920398029900EB810016
:104B1000603000900098006820F000400199084340
:104B20000099086004B0704782B00190009101982C
:104B3000406920F00040009908430199486102B0A3
:104B40007047000080B58EB0002101910D910C914D
:104B50000B910A9109910891079106910591049191
:104B6000039140F20040C2F2000002904FF0A042D8
:104B700002604FF44032426010228260C1600161E5
:104B8000416104228261017701224277026280F84A
:104B90002410C162016380F83820C16380F840109E
:104BA000FCF7D4FC18B1FFE7FBF784FDFFE700201A
:104BB0000B9040F20040C2F200000BA9FBF796FDFB
:104BC00018B1FFE7FBF776FDFFE744F20000C3F6FC
:104BD000C020039006200490002005907F210691BC
:104BE00004210791089040F20040C2F2000003A99E
:104BF000FBF738FE18B1FFE7FBF75CFDFFE70EB0EF
:104C000080BD000080B58AB0002100910991089113
:104C100007910691059104910391029140F26C4035
:104C2000C2F20000019040F20012C5F200020260E0
:104C30004FF4403242608160C160016141610422F1
:104C40008261017701224277026280F82410C162FA
:104C5000016380F83820C16380F84010FCF776FCCF
:104C600018B1FFE7FBF726FDFFE70220C0F2304056
:104C7000029006200390052004907F2005900420D8
:104C800006900020079040F26C40C2F2000002A99A
:104C9000FBF7E8FD18B1FFE7FBF70CFDFFE70AB0F3
:104CA00080BD000080B588B0FFE741F24800C4F243
:104CB0000200016841F004010160006800F0040096
:104CC00007900798FFE7FFE741F24800C4F20200AF
:104CD000016841F001010160006800F001000690E8
:104CE0000698FFE70B200090002204921146FDF782
:104CF00083FE0098FDF776FE049A0C200190114681
:104D0000FDF77AFE0198FDF76DFE049A0D200290E2
:104D10001146FDF771FE0298FDF764FE049A0E201D
:104D200003901146FDF768FE0398FDF75BFE049AB9
:104D30000F2005901146FDF75FFE0598FDF752FE26
:104D400008B080BD80B590B000200F900E900D90FF
:104D50000C900B90FFE741F24C00C4F20200016896
:104D600041F004010160006800F004000A900A9814
:104D7000FFE7FFE741F24C00C4F20200016841F096
:104D800020010160006800F0200009900998FFE709
:104D9000FFE741F24C00C4F20200016841F001015A
:104DA0000160006800F0010008900898FFE7FFE745
:104DB00041F24C00C4F20200016841F002010160BE
:104DC000006800F0020007900798FFE740F6000037
:104DD000C4F60000009042F2504100220492FDF718
:104DE0005BFB4FF090400290062101220392FDF7F9
:104DF00053FB0298049A48F2F801FDF74DFB049A20
:104E000040F20040C4F6000005904FF26761FDF7E4
:104E100043FB0098039A04994FF410530B930C92A0
:104E20000D910E910BA90691FDF782F90098049A55
:104E300006994FF480430B930C920D92FDF778F98D
:104E40000298039B049A06994FF0FE0CCDF82CC0F3
:104E50000C930D92032201920E92FDF769F90098CE
:104E6000019ADDF80CC0049B06994FF0500ECDF866
:104E70002CE0CDF830C00D930E92FDF759F9019A50
:104E8000DDF80CC0049B059806994FF2476ECDF8EB
:104E90002CE0CDF830C00D930E92FDF749F9029841
:104EA000039B049A06994FF4004CCDF82CC00C9348
:104EB0000D920E92FDF73CF9039B049A0598069912
:104EC0004FF0200CCDF82CC00C930D920E92FDF7F4
:104ED0002FF9049A0598069980230B930C920D9252
:104EE000FDF726F910B080BD80B582B040F2B86001
:104EF000C2F20000019047F60001C4F20001016017
:104F000041F23621C4F26201416000218160012238
:104F1000C260016141618161C1610162FDF776FB9F
:104F200018B1FFE7FBF7C6FBFFE740F2B860C2F23B
:104F300000000021FDF7CCFA18B1FFE7FBF7BAFB40
:104F4000FFE740F2B860C2F200000021FDF70CFB61
:104F500018B1FFE7FBF7AEFBFFE702B080BD000032
:104F600080B540F20C70C2F2000043F20001C4F2BE
:104F7000000101600021416040F6FF71C160816065
:104F8000FDF744FC18B1FFE7FBF794FBFFE780BD9A
:104F900080B582B040F21C70C2F20000009043F66F
:104FA0000001C4F2010101604FF461214160002160
:104FB00001918160C16001610C2242618161C16126
:104FC000016241628162FFF733FA18B1FFE7FBF734
:104FD00071FBFFE740F21C70C2F200000021FEF7F7
:104FE00009FF18B1FFE7FBF765FBFFE740F21C7014
:104FF000C2F200000021FEF7B7FE18B1FFE7FBF791
:1050000059FBFFE740F21C70C2F20000FEF764FE9D
:1050100018B1FFE7FBF74EFBFFE702B080BD0000D1
:1050200080B582B040F2B070C2F20000009044F24D
:105030000041C4F2000101604FF4E1314160002100
:1050400001918160C16001610C2242618161C16195
:10505000016241628162FFF7EBF918B1FFE7FBF7EC
:1050600029FBFFE740F2B070C2F200000021FEF71A
:10507000C1FE18B1FFE7FBF71DFBFFE740F2B07080
:10508000C2F200000021FEF76FFE18B1FFE7FBF748
:1050900011FBFFE740F2B070C2F20000FEF71CFE09
:1050A00018B1FFE7FBF706FBFFE702B080BD000089
:1050B000FFE7FEE7FFE7FEE788B00790069105925D
:1050C000079800F0070004900498C0F10700052835
:1050D00003D3FFE70420019004E00498C0F1070027
:1050E0000190FFE70198039004980430062803D844
:1050F000FFE70020009003E0049803380090FFE7EA
:105100000098029006980399012202FA01F10139F0
:105110000840029B984005999A40013A1140084383
:1051200008B070477047000086B041F20C00C4F22E
:105130000200016801F0030104910068C1B201207E
:1051400000EB1110029004980090022815D0FFE7A0
:105150000098032812D1FFE7029947F64000C0F2F9
:105160007D10B0FBF1F041F20C01C4F202010968BC
:10517000C1F306214843059011E0FFE7029942F28E
:105180000040C0F2F400B0FBF1F041F20C01C4F2B7
:1051900002010968C1F3062148430590FFE741F287
:1051A0000C00C4F20200006800F0C061022000EBB5
:1051B0001160039005980399B0FBF1F001900198FC
:1051C00006B070477047000080B582B0009000982C
:1051D0000138B0F1807F03D3FFE70120019019E08F
:1051E000009801384EF21401CEF2000108604FF031
:1051F000FF300F2100F092FE4EF21801CEF20001B6
:10520000002008604EF21002CEF200020721116069
:105210000190FFE7019802B080BD000080B5FDF766
:1052200053FB80BD80B594B006A800903821FBF7F1
:1052300027F8002005900490039002900190FDF75C
:10524000FBFB0098092106914FF480310791012161
:105250000B9102210D9103220E9205220F924422FE
:105260001092119112911391FEF738F918B1FFE7DE
:10527000FBF720FAFFE70F200190032002900020A7
:1052800003900490059001A80421FDF7E7FE18B1F2
:10529000FFE7FBF70FFAFFE714B080BD4EF6885129
:1052A000CEF20001086840F470000860704700000A
:1052B00082B001900198406E40B9FFE7019901204A
:1052C000A1F86A000199A1F8680032E008208DF881
:1052D00003008DF80200019800688068C0F3426006
:1052E0008DF80100019800688068400F8DF800007B
:1052F0009DF802009DF8002046F21843C0F6000316
:10530000995C484346F21041C0F600018A5CB0FB4C
:10531000F2F0019AA2F86A009DF803009DF80120BE
:105320009B5C5843895CB0FBF1F00199A1F86800DF
:10533000FFE702B07047000081B00090009890F83D
:105340002800000700280BD5FFE700980068406898
:1053500020F40040009A1168926B10434860FFE708
:10536000009890F82800C00758B1FFE7009800683F
:10537000406820F40030009A1168D26A10434860F7
:10538000FFE7009890F82800800700280BD5FFE77A
:1053900000980068406820F48030009A1168126B11
:1053A00010434860FFE7009890F828004007002865
:1053B0000BD5FFE700980068406820F48020009A31
:1053C0001168526B10434860FFE7009890F828007E
:1053D000C00600280BD5FFE700980068806820F41D
:1053E0008050009A1168D26B10438860FFE70098E4
:1053F00090F82800800600280BD5FFE70098006889
:10540000806820F40050009A1168126C1043886084
:10541000FFE7009890F82800400600281CD5FFE719
:1054200000980068406820F48010009A1168526C5F
:10543000104348600098406CB0F5801F0BD1FFE727
:1054400000980068406820F4C000009A1168926CCF
:1054500010434860FFE7FFE7009890F82800000637
:1054600000280BD5FFE700980068406820F4002072
:10547000009A1168D26C10434860FFE701B0704792
:1054800080B588B0069006990020C1F89000FDF71D
:1054900019F80590069800680068000700282FD5C5
:1054A000FFE70698059B6A466FF07E4111604FF456
:1054B0000011002200F07AFC08B3FFE7FFE7FFE7E6
:1054C0000698006850E8000F20F080000490FFE785
:1054D00004990698026842E800100028F0D1FFE71E
:1054E000FFE706992020C1F88800FFE70699002011
:1054F00081F88400FFE703208DF81F005FE0FFE7DD
:105500000698006800684007002842D5FFE7069823
:10551000059B6A466FF07E4111604FF480010022C6
:1055200000F044FCA0B3FFE7FFE7FFE70698006840
:1055300050E8000F20F490700390FFE7039906985D
:10554000026842E800100028F0D1FFE7FFE7FFE71C
:10555000FFE70698006850E8020F20F00100029073
:10556000FFE702990698026842E802100028F0D18D
:10557000FFE7FFE706992020C1F88C00FFE70699B6
:10558000002081F88400FFE703208DF81F0016E05B
:10559000FFE706992020C1F888000699C1F88C0021
:1055A00006990020C86606990867FFE7069900205B
:1055B00081F88400FFE700208DF81F00FFE79DF8C9
:1055C0001F0008B080BD000080B582B00190019836
:1055D000806A009000990020A1F85E000098FEF714
:1055E00057FC02B080BD000080B584B003900398E2
:1055F000806A02900298D0F8880001900298D0F852
:105600008C000090029800688068000600280CD585
:10561000FFE70198212808D1FFE702990020A1F8AF
:105620005600029800F0DCF8FFE7029800688068F6
:10563000400600280CD5FFE70098222808D1FFE794
:1056400002990020A1F85E00029800F057F8FFE7E9
:105650000299D1F8900040F01000C1F89000029833
:10566000FEF716FC04B080BD80B584B003900398AB
:10567000806A0290039800680068800600282BD496
:10568000FFE702990020A1F85600FFE7FFE7029824
:10569000006850E8020F20F080000190FFE70199B8
:1056A0000298026842E802100028F0D1FFE7FFE705
:1056B000FFE7FFE70298006850E8000F40F0400065
:1056C0000090FFE700990298026842E80010002865
:1056D000F0D1FFE7FFE703E00298FFF7A1F8FFE74B
:1056E00004B080BD80B582B001900198806A0090BE
:1056F0000098FFF799F802B080BD000084B00390D5
:10570000FFE7FFE70398006850E8000F20F490706F
:105710000290FFE702990398026842E8001000280F
:10572000F0D1FFE7FFE7FFE7FFE70398006850E8E5
:10573000020F4FF6FE71CEF6FF7108400190FFE7B1
:1057400001990398026842E802100028EDD1FFE7B2
:10575000FFE70398C06E012814D1FFE7FFE7FFE7DA
:105760000398006850E8000F20F010000090FFE759
:1057700000990398026842E800100028F0D1FFE782
:10578000FFE7FFE703992020C1F88C000399002070
:10579000C8660399486704B07047000080B582B0BE
:1057A0000190FFE7FFE70198006850E8000F20F044
:1057B00040000090FFE700990198026842E800105D
:1057C0000028F0D1FFE7FFE701992020C1F8880009
:1057D0000199002088670198FFF722F802B080BD88
:1057E00083B00290FFE7FFE70298006850E8000FDF
:1057F00020F0C0000190FFE701990298026842E89A
:1058000000100028F0D1FFE7FFE7FFE7FFE702986D
:10581000006850E8020F20F400000090FFE70099B4
:105820000298026842E802100028F0D1FFE7FFE783
:1058300002992020C1F8880003B0704780B592B06B
:10584000119000208DF837001198006848F200018F
:10585000C4F20001884201D1FFE700E0FFE711999F
:1058600088680B694A69C969184310430843109056
:1058700011980068006846F6F311CCF6FF710840F5
:1058800010990843119909680860119800684068E8
:1058900020F44050119A1168D26810434860119862
:1058A000806910901198006848F20001C4F200016C
:1058B000884206D0FFE71198016A109808431090BB
:1058C000FFE71198006880684FF2FF41C1F2FF11B5
:1058D0000840109908431199096888601198006878
:1058E000C06A20F00F00119A1168526A1043C86212
:1058F000FFE71198006843F60001C4F201018842F5
:1059000025D1FFE741F28800C4F20200006800F0F0
:10591000030001460A91032814D80A99DFE801F030
:10592000020A060E01208DF83D000FE002208DF8DE
:105930003D000BE004208DF83D0007E008208DF8C5
:105940003D0003E010208DF83D00FFE7DCE01198FA
:10595000006844F20041C4F2000188422AD1FFE706
:1059600041F28800C4F20200006800F00C00014619
:1059700009910C2819D80999DFE801F007171717C2
:105980000F1717170B171717130000208DF83D007E
:105990000FE002208DF83D000BE004208DF83D0063
:1059A00007E008208DF83D0003E010208DF83D0051
:1059B000FFE7A8E01198006844F60001C4F2000176
:1059C00088422CD1FFE741F28800C4F2020000684F
:1059D00000F030000146089160B1FFE708981028F8
:1059E00010D0FFE70898202808D0FFE70898302853
:1059F0000CD00FE000208DF83D000FE002208DF864
:105A00003D000BE004208DF83D0007E008208DF8F4
:105A10003D0003E010208DF83D00FFE772E0119893
:105A2000006844F60041C4F2000188422CD1FFE72F
:105A300041F28800C4F20200006800F0C000014694
:105A4000079160B1FFE70798402810D0FFE707985B
:105A5000802808D0FFE70798C0280CD00FE000206E
:105A60008DF83D000FE002208DF83D000BE0042092
:105A70008DF83D0007E008208DF83D0003E0102080
:105A80008DF83D00FFE73CE01198006848F2000106
:105A9000C4F2000188422FD1FFE741F28800C4F22E
:105AA0000200006800F440600146069178B1FFE70B
:105AB0000698B0F5806F12D0FFE70698B0F5006F3A
:105AC00009D0FFE70698B0F5406F0CD00FE000203A
:105AD0008DF83D000FE002208DF83D000BE0042022
