:020000040800F2
:10000000B81B0020ED01000821710008DB67000823
:100010001D7100082D2F0008597A0008000000000B
:1000200000000000000000000000000091710008C6
:1000300029300008000000002571000893710008B5
:10004000070200080702000807020008070200086C
:10005000070200080702000807020008070200085C
:10006000070200080702000807020008312F0008F5
:10007000412F0008512F0008612F0008712F000840
:1000800007020008000000008D2D0008070200088C
:10009000070200080702000807020008070200081C
:1000A000070200080702000807020008070200080C
:1000B00007020008070200080702000807020008FC
:1000C00007020008070200080702000807020008EC
:1000D00007020008397A0008497A00080702000878
:1000E00007020008070200080702000807020008CC
:1000F00007020008070200080702000800000000CD
:1001000000000000070200080000000007020008CD
:1001100007020008000000000702000807020008AC
:10012000070200080702000807020008070200088B
:10013000070200080000000000000000070200089D
:10014000070200080702000800000000000000008D
:10015000000000000000000000000000000000009F
:10016000000000000000000000000000070200087E
:10017000070200080000000000000000000000006E
:10018000000000000702000800000000000000005E
:10019000000000000000000000000000000000005F
:1001A000000000000000000007020008070200082D
:1001B000070200080702000807020008000000000C
:1001C000000000000702000800000000000000001E
:1001D0000702000807020008DFF80CD000F070FBEF
:1001E0000048004799B40008B81B00200648804723
:1001F00006480047FEE7FEE7FEE7FEE7FEE7FEE70C
:10020000FEE7FEE7FEE7FEE709720008D9010008F5
:100210002DE9F05F0546002092469B46884606463B
:10022000814640241BE0284641464746224600F0CE
:1002300040FA53465A46C01A914110D31146184607
:10024000224600F027FA2D1A67EB01084F46224696
:100250000120002100F01EFA17EB00094E41201E7C
:10026000A4F10104DFDC484631462A464346BDE896
:10027000F09F40EA01039B0703D009E008C9121F61
:1002800008C0042AFAD203E011F8013B00F8013B50
:10029000521EF9D27047D2B201E000F8012B491E7C
:1002A000FBD270470022F6E710B513460A46044613
:1002B0001946FFF7F0FF204610BD2DE9FE4F80469E
:1002C00081EA0300C00F0C46009021F0004123F0AA
:1002D0000045B8EB0200A94105D2404621469046B0
:1002E0001C460B46024623F00040104347D0270D22
:1002F000C7F30A00C3F30A510290401A0190402844
:100300006BDAC3F3130040F4801B0098924620B1CF
:100310000023D2EB030A63EB0B0B01985946C0F1A3
:100320004002504600F0B6F906460D465046594682
:10033000019A00F0CEF910EB08006141002487EA31
:10034000115284EAE7731A4340D0009A62B3019ACB
:10035000012A4FEA075215DC001B61EB02014FF046
:10036000004202EA0752CDE90042001C41F580112B
:1003700032462B4600F005FA03B0BDE8F08F404648
:100380002146F9E7001B61EB0201001C41F58013D7
:1003900000185B412018A2F5001747EB030140EA63
:1003A000D570B6196D4111E06D084FEA360645EA81
:1003B000C0754FEA0752001B61EB0201001C41F5BA
:1003C000801149084FEA30000019514132462B464E
:1003D00003B0BDE8F04F00F0C5B90098012240001D
:1003E0000023D0EB020263EBE073009821464FEA52
:1003F000E074B8EB000061EB0401E9E783F000432F
:100400005BE781F0004158E72DE9FE4F81EA0304E4
:1004100004F0004421F0004100944FF0000B23F061
:10042000004350EA01045ED052EA03045BD0C3F3F8
:100430000A54C1F30A552C44A4F2F3340194A0FBEE
:100440000254C1F3130141F48011C3F3130343F4C5
:10045000801301FB024400FB034E840A970A44EA1E
:10046000815447EA8357A4FB076802958D0A05FB70
:1004700007854FEA932C04FB0C542705029D4FEA95
:10048000065847EA1637B5EB08056EEB070C870EE2
:10049000920E47EA811742EA8312A7FB0201B6EBEC
:1004A0000B0164EB00042B0D43EA0C335E1844EBA4
:1004B0001C50DA465146E7FB0201C5F313044FEA2C
:1004C0000B3343EA14534FEA0432019C43EA060318
:1004D000A4F10C040294009CCDE900B400F051F9A1
:1004E00003B0BDE8F08F00200146F9E72DE9F04D9B
:1004F00081EA030404F0004B21F0004514464FF05C
:10050000000A23F0004150EA050220D054EA01021B
:100510001DD0C5F30A570246C5F31303C1F31300F8
:10052000C1F30A5640F4801543F48013A7EB060884
:10053000101BD64608F2FD3873EB050002D308F114
:10054000010801E092185B41B8F1000F03DA0020C6
:100550000146BDE8F08D00204FF480110646844628
:100560000EE0171B73EB050705D3121B63EB0503A6
:1005700006434CEA010C49084FEA300092185B41EF
:1005800050EA0107EDD152EA030012D082EA0400DA
:1005900083EA0501084305D0101BAB4106D20122B6
:1005A000002306E000224FF0004302E06FF001025A
:1005B00053101AEB06004CEB085110EB0A0041EB0C
:1005C0000B01BDE8F04D00F0CDB830B5041E71F15F
:1005D000000404DB4FF00044404264EB0101141EB0
:1005E00073F1000405DB1C464FF00043524263EBFD
:1005F0000403101A8B4101D2012030BD002030BD10
:1006000030B5041E71F1000404DB4FF00044404299
:1006100064EB0101141E73F1000405DB1C464FF06E
:100620000043524263EB0403801A994101D2012036
:1006300030BD002030BD00F0004230F000400AD054
:10064000C10D01F56071C0F3160042EA0151C20804
:1006500040071143704700200146704701F00043F6
:1006600030B421F0004150EA010206D00A0DA2F593
:100670006072C1F31301002A02DC30BC0020704715
:10068000440F44EAC104C100E01830BC00EBC25082
:1006900000F031B8202A04DB203A00FA02F10020F1
:1006A00070479140C2F1200320FA03F319439040B0
:1006B0007047202A04DB203A21FA02F0002170471B
:1006C00021FA02F3D040C2F12002914008431946BA
:1006D0007047202A06DBCB17203A41FA02F043EAA2
:1006E000E07306E041FA02F3D040C2F120029140EB
:1006F0000843194670470029A8BF7047401C4900AD
:1007000008BF20F00100704710B4B0FA80FC00FA76
:100710000CF050EA010404BF10BC704749B1CCF1A1
:10072000200421FA04F411FA0CF118BF012121432D
:100730000843A3EB0C01CB1D4FEA00614FEA1020E8
:1007400042BF002010BC704700EBC350104400298A
:10075000A4BF10BC7047401C490008BF20F0010036
:1007600010BC704710B5141E73F1000408DA401C69
:1007700041F1000192185B411A4301D120F00100C0
:1007800010BD2DE9F04D92469B4611B1B1FA81F2B0
:1007900002E0B0FA80F220329046FFF77BFF044679
:1007A0000F4640EA0A0041EA0B0153465A46084305
:1007B00013D0114653EA010019D0C8F14002504647
:1007C000FFF777FF05460E46504659464246FFF76B
:1007D00061FF084305D0012004E020463946BDE80A
:1007E000F08D0020054346EAE0762C4337430A9813
:1007F0006305E40AA0EB08000022FD0A44EA47541E
:100800000A3002D500200146E9E7010510196941C7
:10081000DDE9084500196941BDE8F04DA2E72DE981
:10082000F04D00231A461B1A8A4103DB00200146C3
:10083000BDE8F08DC1F30A52C1F3130141F48015F4
:100840004FF0000BD10702D100186D41521E002756
:10085000044640F2FF11384601EB620A3E468046EC
:10086000024600204FF48011FFF723FFC2197141A7
:10087000BB1846EB0100B4EB030C75EB000C04D382
:10088000E41A65EB000517460E46241908F101002D
:100890006D4180463428E3DDF91946EB0600091B5B
:1008A000A84103D24FF0FF32134601E00022134665
:1008B0001BEB070046EB0A51BDE8F04DFFF752BFB6
:1008C000064C074D06E0E06840F0010394E807009D
:1008D00098471034AC42F6D3FFF782FC4CC50008B1
:1008E0006CC500080EB5C10F80EAE0700844CA0765
:1008F000002140F233438DE80E000A460B46FFF715
:1009000040FF03B000BD0EB540F23341029100211B
:10091000CDE900110A460B46FFF733FF03B000BDD7
:1009200070B5C1F30A5201F000450024C1F3130170
:1009300040F2FF3341F480119A4201DA002070BD89
:1009400040F233439A42A2F2334203DC5242FFF7B1
:10095000B0FE00E090402C43F1D0404270BD30B575
:100960008C1810F8012B12F00F0301D110F8013B85
:10097000120906D110F8012B03E010F8015B01F811
:10098000015B5B1EF9D101E001F8013B521EFBD176
:10099000A142E6D3002030BD2DE9F04F81B02DED0E
:1009A000028B84B09FED5C1AB4EE410AF1EE10FAAE
:1009B000C0F29280F4EE410AB0EE608AF1EE10FAD5
:1009C000C0F28A80029010EE100A0391FFF733FE06
:1009D0009FED450B02460B4651EC100BFFF786FDD1
:1009E0009FED430B53EC102BFFF70EFD044618EE62
:1009F000100A0D46FFF71FFE02460B462046294609
:100A0000FFF702FD41EC100B07F082FE54EC105B87
:100A10009FED390B284653EC102B2146FFF7F4FCD1
:100A200006460F46284621462A462346FFF7ECFC99
:100A300032463B4680468946FFF73FFC9FED300B30
:100A400053EC106B32460193FFF737FC82468B461E
:100A50004046494652465B46FFF748FD41EC180BBD
:100A6000029F02460B4687ED008BFFF726FC41EC08
:100A7000100B404687ED020B9FED230B494653ECCC
:100A8000102B87ED048BFFF718FC02460B46FFF78F
:100A900014FC52465B46FFF729FD41EC100B039F07
:100AA000284687ED000B9FED1A0B214653EC102BC7
:100AB000FFF7AAFC019B3246FFF7FFFB02460B46FD
:100AC00040464946FFF7F9FB52465B46FFF70EFDED
:100AD00041EC100B87ED020B04B0BDEC028B01B0B2
:100AE000BDE8F08F00BF00BFAC4F62FC46CECC3FEC
:100AF00000000060FB210940CD3B7F669EA0F63FD1
:100B0000000000000000F03F000000000000F0BF07
:100B1000CD3B7F669EA0F6BF000080250000000050
:100B2000022938BF70472DE9F04F81B02DED0A8BB7
:100B30008AB0DDE91E9A0C460293D9E9001380467B
:100B40000120C7F6F07023F00043002918BF43F0DE
:100B500001038342099280F02F81019424F0010067
:100B6000A8F10404A9F12005AAF10401CDE90605C4
:100B700005F120000590606804940891FFF75BFD83
:100B8000099C074694ED000B8A4694ED02BB51EC9C
:100B9000100B3A4653460397FFF736FC95ED080BCA
:100BA00095ED0AAB95ED0C9B95ED0E8B53EC102B50
:100BB000FFF783FB83460298884690ED000B0546BD
:100BC00053EC102B5846FFF71FFC0646894651ECA4
:100BD0001B0B3A465346FFF717FC32464B46FFF7CE
:100BE0000DFC02460B4651EC1A0BFFF766FB41EC7D
:100BF000100B079F584687ED080B95ED020B94EDFF
:100C000004AB53EC102B4146A946FFF7FDFB039ABA
:100C100006460D4651EC1A0B5346049CFFF7F4FBB5
:100C200032462B46FFF7EAFB41EC100B5846414693
:100C300087ED0A0BFFF712FD0899486054F8080F7A
:100C4000FFF7F9FC064609980D4690ED000B90ED74
:100C500002AB51EC100B32462B460496FFF7D4FB47
:100C600053EC192BFFF729FB99ED000B824653EC4F
:100C7000102B8B46FFF7C8FB80460F4651EC1A0B32
:100C800032462B46FFF7C0FB42463B46FFF7B6FB1A
:100C900002460B4651EC180BFFF70FFB41EC100B13
:100CA000DDF81C80099888ED0C0B99ED020B90ED96
:100CB000048B53EC102B50465946FFF7A5FB049AC2
:100CC00006460F4651EC180B2B46FFF79DFB3246AC
:100CD0003B46FFF793FB41EC100B5046594688ED1D
:100CE0000E0BFFF7BBFC0899059D41F8080F06980D
:100CF00002387FF43BAF0198DDF808A0DDF82480CE
:100D0000C00700F0DE82606854460891FFF793FC4C
:100D100098ED000B8246894698ED029B51EC100B32
:100D200052464B46FFF770FB95ED080B95ED0A8B8D
:100D300053EC102BFFF7C1FA94ED000B834653ECF4
:100D4000102B0C46FFF760FB06460F4651EC190BC3
:100D500052464B46FFF758FB32463B46FFF74EFBE9
:100D600002460B4651EC180BFFF7A7FA41EC100BAB
:100D7000029885ED080B90ED020B98ED048B53EC77
:100D8000102B58462146FFF73FFB06460F4651EC15
:100D9000180B52464B46FFF737FB32463B46FFF7F0
:100DA0002DFB41EC100B5846214685ED0A0BFFF751
:100DB00055FC0899486084E2D9E90217B0EE609AC0
:100DC00027F00043002918BF43F00103B0EE408A2A
:100DD000834203D247EC101B07E000BF09F110006B
:100DE000E100FFF75FFA9FED480B9FED491B51ECC7
:100DF000100B53EC112B06920893FFF75EFA41ECAF
:100E0000100B04F0030BA0084FF0000589ED020B56
:100E1000079000F08180A8F1100709F12806AAF1D7
:100E20001004A5EB800A00BF57F8100FFFF703FC72
:100E300016ED060B024616ED04CB16ED02BB96ED41
:100E400000AB0B4651EC100BFFF737FA41EC100BDF
:100E500006ED060B99ED020B53EC102BFFF746FB4A
:100E6000FFF7FCFB44F8100F7868FFF7E4FB02463D
:100E70000B4651EC1C0BFFF720FA41EC100B06ED72
:100E8000040B99ED020B53EC102BFFF72FFBFFF730
:100E9000E5FB6060B868FFF7CEFB02460B4651ECFD
:100EA0001B0BFFF70AFA41EC100B06ED020B99ED54
:100EB000020B53EC102BFFF719FBFFF7CFFBA060E1
:100EC000F868FFF7B8FB02460B4651EC1A0BFFF728
:100ED000F4F941EC100B86ED000B99ED02AB53ECED
:100EE0001A2BFFF703FBFFF7B9FB043DAA4506F1F8
:100EF0002006E06098D1DDF87CA06D42BBF1000FC8
:100F00000DD16AE000BF00BF00000000000000003B
:100F1000000000000000F03FBBF1000F5DD058F86A
:100F2000250009F11004FFF786FB04EBC50696EDDA
:100F3000000B02460B4651EC100BFFF7BEF941ECDB
:100F4000100B86ED000B99ED02AB53EC1A2BFFF75B
:100F5000CDFAFFF783FBBBF1010F4AF825003CD027
:100F60006E1C58F82600FFF766FB04EBC60797EDEA
:100F7000000B02460B4651EC100BFFF79EF941ECBB
:100F8000100B87ED000B99ED02AB53EC1A2BFFF71A
:100F9000ADFAFFF763FBBBF1020F4AF826001CD045
:100FA000023558F82500FFF746FB04EBC50494ED25
:100FB000000B02460B4651EC100BFFF77EF941EC9B
:100FC000100B84ED000B99ED02AB53EC1A2BFFF7DD
:100FD0008DFAFFF743FB4AF8250019EE100ACDF809
:100FE00010B0FFF728FB02460B4651EC1A0BFFF737
:100FF0000BFA044618EE100A0D46FFF71CFB0246DA
:101000000B4620462946FFF7E0FADDF824B0069E9D
:10101000002840F0568107990027002900F0BA8087
:101020001E98089EDDF80890AAF1100A00F1380811
:10103000A7EB8100059000BF5AF8100F0797FFF744
:10104000FAFA9BED000B069F04460D4653EC102B5D
:1010500038463146FFF7D2F922462B46FFF7D4F93E
:1010600041EC100B08ED0E0B9BED040B99ED021BF0
:1010700051EC100B53EC112BFFF7C0F922462B4615
:10108000FFF7C2F941EC100BDAE9010408ED0C0B93
:10109000FFF7D1FA9BED000B0E460899054653EC7D
:1010A000102B3846FFF7AAF92A463346FFF7ACF96A
:1010B00041EC100B08ED0A0B9BED040B99ED021BA4
:1010C00051EC100B53EC112BFFF798F92A463346DD
:1010D000089EFFF799F941EC100B204608ED080B2C
:1010E000FFF7A9FA9BED000B04460D4653EC102BBD
:1010F00038463146FFF782F922462B46FFF784F93E
:1011000041EC100B08ED060B9BED040B99ED021B57
:1011100051EC100B53EC112BFFF770F922462B46C4
:10112000FFF772F941EC100BDAF80C0008ED040B34
:10113000FFF781FA9BED000B04460D4653EC102B94
:101140003846079F3146FFF759F922462B46FFF7ED
:101150005BF941EC100B08ED020B9BED040B99EDD4
:10116000021B51EC100B53EC112BFFF747F92246F1
:101170002B46FFF749F941EC100B0598043F88ED29
:10118000000BB84208F140087FF456AFDDF87CA0B0
:10119000069E7F420498002800F093805AF82700AA
:1011A0001E9901EB0718FFF746FA044609980D4609
:1011B00090ED000B089953EC102B3046FFF71EF909
:1011C00022462B46FFF720F941EC100B099888EDD9
:1011D000000B90ED040B029890ED021B51EC100BEC
:1011E00053EC112BFFF70AF922462B46FFF70CF9B7
:1011F00041EC100B049888ED020B012861D0791C9A
:101200005AF821001E9A02EB0118FFF714FA04465F
:1012100009980D4690ED000B089953EC102B3046C1
:10122000FFF7ECF822462B46FFF7EEF841EC100BE7
:10123000099888ED000B90ED040B029890ED021BCD
:1012400051EC100B53EC112BFFF7D8F822462B462C
:10125000FFF7DAF841EC100B0498099B029A022878
:1012600088ED020B2DD0B91C5AF821001E9F904624
:1012700007EB01191F46FFF7DEF997ED000B0D464E
:101280000899044653EC102B3046FFF7B7F8224676
:101290002B46FFF7B9F841EC100B89ED000B97EDE9
:1012A000040B98ED021B51EC100B53EC112BFFF7C4
:1012B000A5F822462B46FFF7A7F841EC100B89ED65
:1012C000020B0AB0BDEC0A8B01B0BDE8F04F7047CD
:1012D00041F2E031C2F2000191ED000A91ED011AF4
:1012E00091ED044A91ED055A91ED022A91ED066ABD
:1012F00091ED033A91ED077A61EE050A64EE001A6A
:1013000071EEE00A66EE021A70EEE10A67EE031A69
:1013100070EEE10A60EE051A64EE012A72EEA11A7F
:1013200066EE032A72EEA11A67EE022A71EEE21A45
:1013300063EE052A64EE023A73EEE22A66EE003AA4
:1013400025EE022A24EE033A73EEA22A67EE013A52
:1013500033EE022A26EE011A32EE411A27EE000A77
:1013600073EEA22A30EE010AC0ED000AC0ED011AA8
:10137000C0ED022A80ED030A7047000000281EBF5E
:1013800041F2E021C2F20001486070470000000015
:101390002DE9F04F81B02DED108B92B090ED04AAA5
:1013A00090ED05BA90ED078A90ED089A28EE0B0AA9
:1013B0002AEE091A31EE400A054610EE100A119184
:1013C000FFF739F9D5ED038A95ED06FA29EE280ADB
:1013D0002BEE0F1A31EE400A814695ED00EA95EDAD
:1013E00001DA95ED02CA10EE100A8B46FFF723F9D9
:1013F0002FEE0A0A28EE881A31EE400A044610EE53
:10140000100A0F46FFF717F980461EEE100A8A46AB
:10141000FFF711F905461DEE100A0E46FFF70BF90E
:1014200022463B4610940F97FEF7EEFF07460C4608
:10143000284631464A465B46CDF83890CDF834B060
:10144000FEF7E2FF3A462346FEF737FF05461CEE5D
:10145000100A0E46FFF7EFF842465346C346CDF852
:1014600030A0FEF7D1FF2A463346FEF726FF9FED58
:10147000640B07460D4651EC100B9FED630BC80F34
:10148000A94660F3DF7958EC10AB3846494652461E
:101490004346FFF7B5F8002800F09E8028EE8D0A3D
:1014A0002EEE0A1A31EE400A10EE100AFFF7C3F8CA
:1014B00028EE0E0A2DEE0F1A31EE400ACDE90A1081
:1014C00010EE100AFFF7B7F82BEE0E0A2CEE281AD2
:1014D00031EE400ACDE9081010EE100AFFF7ABF824
:1014E0002FEE0C0A2EEE091A31EE400ACDE9061055
:1014F00010EE100AFFF79FF82AEE0C0A2DEE0B1AD9
:1015000031EE400ACDE9031010EE100AFFF793F810
:1015100029EE0D0A2CEE081A31EE400ACDE9011031
:1015200010EE100ACDF814B0FFF785F804468B468C
:10153000DDE90D103A462B46FEF7D8FFFFF78EF88F
:10154000119E5946306020463A462B46FEF7CEFFA4
:10155000FFF784F87060DDE901103A462B46FEF78C
:10156000C5FFFFF77BF8B060DDE90F103A462B4668
:10157000FEF7BCFFFFF772F8F060DDE903103A46B2
:101580002B46FEF7B3FFFFF769F83061DDE906107F
:101590003A462B46FEF7AAFFFFF760F87061059800
:1015A0000C993A462B46FEF7A1FFFFF757F8B061BA
:1015B000DDE908103A462B46FEF798FFFFF74EF894
:1015C000F061DDE90A103A462B46FEF78FFFFFF780
:1015D00045F8306204E000BF11982421FEF762FE56
:1015E0003846494652464346FFF70AF8002818BFD6
:1015F000012012B0BDEC108B01B0BDE8F08F00BF30
:101600000000000000000000000000000000B03CEE
:1016100010B541F2B030C2F200004CF6CD4140F2BC
:1016200001124BF2177EC3F6CC51828001220023B7
:1016300040F2000CC3F6D10E4CF28F24016082718F
:101640004FF07C52C4F2C823C4F2A00CC3F6F54498
:10165000C0E9051E4FF080418260C360C0F810C031
:10166000C0E907424262C0E90A1241F21830C2F2F0
:101670000000F5EE400AF1EE10FA80ED000AC8BF56
:10168000B0EE600A80ED010ABDE8104000F09AB8A3
:101690002DE9F04381B02DED028B84B041F2E025BD
:1016A000C2F200051C46EB7853B3AB78DDE90E9827
:1016B00092ED008AB3B940F22813C2F2000393ED11
:1016C000000A0122F0EE400AAA7006460F46FFF714
:1016D0009FFFAB78394630460022012BEA612A622F
:1016E0006A623BD1D1E900238968B0EE480A0391D0
:1016F00001A9CDE9012301F08BF995ED080A2FE04E
:10170000687800284FF0000017D12978012914D8F3
:101710006C1C00BF6B680020214601229847687846
:10172000052811D02978002801F101014FF00000AF
:10173000297002D1C9B20229ECD304B0BDEC028BEE
:1017400001B0BDE8F08300BF0120E870002004B0C4
:10175000BDEC028B01B0BDE8F08300BF9FED110A24
:1017600084ED000A686A6060E869A060A86AC9F848
:101770000000E86AC9F80400286BC9F80800686B23
:10178000A968C9F80C00C8F80010E868C8F8040097
:101790002869C8F80800012004B0BDEC028B01B034
:1017A000BDE8F0830000000041F2E020C2F200003A
:1017B0000021817040F22811C2F20001012081ED68
:1017C000000A704770B541F21834C2F2000494ED7B
:1017D000001A9FED520AB4EE401AF1EE10FAC0F270
:1017E0009C80D4ED010AF4EE400AF1EE10FAB8BF85
:1017F00070BD41F2B035C2F2000595ED000A04F16A
:10180000080004F12001FFF7C7F89FED450A94EDA9
:10181000011A95ED032A21EE001A81EE021A95EDC8
:10182000052A95ED064A22EE002A22EE022A22EE31
:10183000023A9FED3C5A04F14800B4EE454AF1EEFD
:1018400010FAC8BFB0EE445A95ED026AD4ED000A12
:1018500004F1600183EE013A84ED0D1A32EE032AA1
:1018600095ED073A82EE054A23EE003A23EE033A5D
:1018700023EE035A85EE015A26EE000A20EE000AF6
:1018800084ED0C0A95ED090A84ED0E2A84ED0F4AC9
:1018900033EE051A84ED101AFFF77EF895ED090A6C
:1018A000D4ED010A04F1700004F18801FFF774F827
:1018B00041F2E035C2F200054FF07E500026C5E946
:1018C0000006C5E9040605F138004021C5E90A66AD
:1018D0002E63C5E90266C5E906662E6285F82460B6
:1018E000FEF7E0FC94ED0C0A05F5D470302185ED8F
:1018F0001E0AC5E91F66C5F8846085ED220AC5E9A0
:101900002366C5F8946085ED260AFEF7CBFC05F149
:10191000A0004FF48271FEF7C5FC70BD0000802569
:101920000000C842FFE6DB2E2DE9F04F81B02DED1F
:10193000108BA2B0B0EE408A9FEDDA0A41F2B03BC4
:10194000B4EE408A9FEDD81AF1EE10FAB5EE408A57
:10195000C8BFB0EE418AC2F2000B0C460546F1EE5C
:1019600010FAB8BFB0EE418A9BF805009BF806104C
:1019700041F2183841F2E039C2F200080843C2F2DD
:10198000000988ED008A88ED018A5AD09BED090A8A
:1019900009F5AE7709F5B47608F1480208F160035D
:1019A00028460321F0EE480ACDE90067FFF7B8F8B2
:1019B00099ED572A99ED581A95ED003A95ED014A9F
:1019C00099ED590A95ED025A33EE423A34EE414A06
:1019D00023EE033A24EE044A33EE044A35EE403A4D
:1019E00023EE035A9BED0A6A9FEDB03A34EE054AA6
:1019F00026EE035A25EE055AB4EE454AF1EE10FAEA
:101A000089ED544A18DA9BED044AB0EEC22A24EE5E
:101A1000033AB4EE432AF1EE10FA0DDCB0EEC11A2F
:101A2000B4EE431AF1EE10FA06DCB0EEC00AB4EEE2
:101A3000430AF1EE10FA04DD0020C9F8580189F8D4
:101A4000240095ED000A95ED011A99ED1B3A99EDE8
:101A50001C4A95ED022A99ED1D5A30EE43BA31EE3B
:101A600044CA32EE45DA2BEE0B0A2CEE0C1A31EE9C
:101A7000000A2DEE0D1A31EE000AB1EEC0FA9FED0C
:101A80008CAAB6EE009AB4EE4AFAF1EE10FA40F3E0
:101A9000A38028EE0F0A20EE090A10EE100AFEF7C6
:101AA000CAFD41EC180BB0EE480AF0EE680A06F0E9
:101AB0009BFB51EC100BFEF7D1FDB0EE480AF0EEA7
:101AC000680A0EEE100A06F09BFCB0EE408A1FEE8C
:101AD000100AF0EE608AFEF7AEFD02460B4651ECAE
:101AE000180BFEF703FDFEF7B9FD00EE100A99EDA5
:101AF000006A99ED017A2BEE003AD9ED020A2CEE3C
:101B0000004A2DEE005AD9ED031A23EE070A26EEFD
:101B10000E1A31EE400A20EE841A30EE410A21EE10
:101B2000851A30EE410A27EE0E1A26EE032A32EE0F
:101B3000011A20EE852A32EE011A21EE842A31EEB6
:101B4000421A25EE072A66EE042A32EEC22A60EE19
:101B50008E2A27EE044A26EE055A32EE822A61EEDC
:101B6000832A35EE044A20EE833A34EE433A21EEDE
:101B70008E4A32EE822A34EE033A20EE004A21EEFB
:101B8000015A35EE044A22EE025A35EE044A23EE9B
:101B9000035A35EE044AB1EEC44A9FED465A89ED28
:101BA000000A89ED011A89ED022A89ED033AB4EEA3
:101BB000454AF1EE10FA0FDB80EE040A81EE041ABA
:101BC00082EE042A83EE043A89ED000A89ED011AB7
:101BD00089ED022A89ED033A94ED000A94ED011A89
:101BE00094ED022A21EE011A20EE000A30EE010ADD
:101BF00022EE021A31EE000AB1EEC00AB4EE4A0A31
:101C0000F1EE10FAC0F26C839BF8050098ED018AA2
:101C1000002856D09BED090A09F5CC7709F5D47652
:101C200008F1700208F1880320460321F0EE480A0B
:101C3000CDE90067FEF774FF94ED000A94ED011AF8
:101C400099ED663A99ED674A94ED022A99ED685A42
:101C500030EE430A31EE441A20EE000A21EE011A5A
:101C600030EE010A32EE451A9BED0B2A21EE011AE5
:101C700030EE010A22EE021AB4EE410AF1EE10FA39
:101C800089ED550A18DA99ED560A9BED081A38EED7
:101C9000000AB4EE410AF1EE10FA89ED560A10DBA3
:101CA00001200CE09A99993E0AD7A33C35FA8E3C64
:101CB00000000034000080250020C9F8580189F890
:101CC000240099ED000A99ED011A99ED022A99ED87
:101CD000033AB8EE00DA62EE012A60EE033A22EE31
:101CE0000D4A72EEE34A73EEA22A61EE0D3A24EE3B
:101CF000024AB7EE00BA23EE0D6A63EE813A34EE83
:101D00000B5A26EE036A94ED017AD4ED000A73EEC5
:101D10008B3A36EE055A63EE016A60EE027A36EED1
:101D2000236A22EE032A20EE010A77EE071A27EE35
:101D3000066A30EEA07A32EE401A36EEE73A30EE1E
:101D4000020AD4ED025A21EE800A27EE032A61EE40
:101D5000A44A25EE205A30EE020A34EE232A35EE4C
:101D6000245A75EEA54A37EEA6AA67EE220A25EE9A
:101D7000822A24EE8AAA30EE866A24EE811A32EE96
:101D8000002A9BED000A08F1080608F1200A3AEE45
:101D9000055A36EE011A09F1280709F138051FA87E
:101DA0000321F0EE480A324653468DED1F5A8DED61
:101DB000201A8DED212ACDE90057FEF7B1FE99EDED
:101DC000061A99ED072A99ED043A99ED050A21EED4
:101DD0000D4A24EE014A22EE0D6AD9ED0B0A34EECB
:101DE0000B5A26EE026A99ED0A7A61EE003A63EE2A
:101DF000024A36EE055AD9ED0C1A70EEA02A73EE9F
:101E0000E45A62EEA55A25EE075A62EE006A63EEC6
:101E1000017A35EE255A71EEA15A37EEA68A25EEE3
:101E2000888A38EE05AA34EEA35A60EE0D3A63EEC6
:101E3000803A73EE8B3A36EE236A37EE077A20EE5D
:101E4000866A27EE055A35EE065A21EE026A63EEDF
:101E5000000A76EE604A65EEA44A35EE24CA36EEF4
:101E6000E75A30EE866A22EE866A27EE055A34EE8D
:101E7000234A36EE055A21EE844A34EE054A2AEE0C
:101E80000A5A2CEE0C6A36EE055A24EE046A36EE37
:101E9000055AB1EEC56A1FED795A8DED1FAA8DED79
:101EA00020CA8DED214AB4EE456AF1EE10FA0BDB43
:101EB0008AEE06AA8CEE06CA84EE064A8DED1FAAAB
:101EC0008DED20CA8DED214A34EE0B6A26EE096AAB
:101ED000B1EEC66ADFEDEF1A2CEE097AFEEE000ACB
:101EE0006AEE200AF0EE4B3AB4EE616ADFEDEA1AD0
:101EF00087EE067AF0EE612AC0EE860AF1EE10FA5D
:101F0000C8BFF0EE462AC4BFF0EE473AF0EE601AC2
:101F100020EE236A22EE837A37EE466A21EE817A3A
:101F200036EE476A23EE237A62EE800A30EE877A35
:101F300061EE820A30EE877A62EE230A62EE814A0F
:101F400021EE231A22EE822A74EEE00A21EE833A71
:101F500032EE011A21EE800A33EE203A31EE400AC9
:101F600026EE061A27EE072A32EE011A23EE032A7E
:101F700032EE011A20EE002A32EE011AB1EEC11A39
:101F800089ED046A89ED057A89ED063A89ED070A3B
:101F9000B4EE451AF1EE10FA0FDB86EE012A87EE59
:101FA000015A83EE013A80EE010A89ED042A89ED97
:101FB000055A89ED063A89ED070A14EE100AFEF774
:101FC0003AFB41EC100B05F0A3FD98ED018AB0EE51
:101FD000409A18EE100AF0EE609AFEF72CFB0246CB
:101FE0000B4651EC190BFEF781FAFEF737FB9BF815
:101FF00004409BF80550C9F8680054EA050100F058
:102000006F8199ED000A99ED011A99ED044A99ED55
:10201000055A99ED022A99ED066A99ED033A99ED70
:10202000077A61EE050A64EE001A71EEE00A66EEC8
:10203000021A70EEE10A67EE031A70EEE10A60EE32
:10204000051A64EE012A72EEA11A66EE032A72EEF8
:10205000A11A67EE022A71EEE21A63EE052A64EE17
:10206000023A73EEE22A66EE003A25EE022A24EEE8
:10207000033A73EEA22A67EE013A33EE022A26EE05
:10208000011A32EE411A27EE000A73EEA22A30EE50
:10209000010A22EEA13A20EE804A33EE445A21EEA4
:1020A000806A34EE033A20EEA24A34EE067A36EE27
:1020B000444A20EE002A22EE800A20EEA16A34EE85
:1020C000044A8DED1C4A30EE464A36EE000A30EEE8
:1020D000000A22EEA21A8DED1D0A21EEA10A21EEC0
:1020E0000D1A30EE000A22EE0D2A3BEE400A31EEC8
:1020F0000B6A32EE066A32EE002A31EE000A8DEDEE
:102100001E0A99ED1C0A99ED1B1A35EE055A8DED44
:10211000166A8DED175A25EE005A26EE016A8DEDEE
:102120001A2A22EE000A33EE032A36EE055A99EDFA
:102130001D6A22EE011A31EE000A34EE041A37EE5F
:10214000077A8DED1B1A21EE061A9BED009A8DED94
:10215000187A27EE067A31EE000A37EE055A9BED23
:1021600004DA8DED150A16A809F1A0070921B0EED1
:10217000490AF0EE480A324653468DED145A8DED69
:10218000192ACDE90070FEF7CBFC14A809F5987761
:102190000221B0EE490AF0EE480A32465346CDE934
:1021A0000070FEF7BDFC99F82400002818BF002D30
:1021B0004CD1002C74D08CEE080A9DED141A99EDC8
:1021C0001B5A9DED163A99ED1C6A9DED174A99ED43
:1021D0001D7ADDED180A23EE053A9DED152ADDED99
:1021E000191A31EE400A8AEE081A30EE430A24EE3C
:1021F000063A30EE430A20EE873A30EE434A31EE9B
:10220000020A9DED1A2A21EE851A30EE410A22EECD
:10221000061A9DED1B2A30EE410A22EE071A30EE17
:10222000413A9DED1D0A9DED1C1A9DED1E2A20EEE2
:10223000460A21EE051A30EE415A22EE072A98EDA1
:102240000E1A98ED0F0A35EE422A2DE099ED1B0A81
:1022500099ED573A99ED1C1A99ED1D2A99ED585AA6
:1022600099ED596A33EE404A98ED100A4FF07E50CE
:10227000002135EE413A36EE422A1690CDE917118B
:10228000CDE91910CDE91B111D911E90B0EE401A39
:102290000AE000BFBD3786350000000035FA8E3CED
:1022A000BFEE000AB0EE401A99ED1EAA98ED0C5A46
:1022B000B4EE45AAF1EE10FA18DB99ED22BAB4EEAD
:1022C00045BAF1EE10FA1EDB99ED26CAB4EE45CA06
:1022D000F1EE10FA24DBB5EE401AF1EE10FA2ADA2C
:1022E00022B0BDEC108B01B0BDE8F08F98ED0D6A07
:1022F0003AEE06AA89ED1EAA99ED22BAB4EE45BAC5
:10230000F1EE10FAE0DA98ED0D6A3BEE06BA89EDCF
:1023100022BA99ED26CAB4EE45CAF1EE10FADADA1D
:1023200098ED0D5A3CEE05CA89ED26CAB5EE401A65
:10233000F1EE10FAD4DB1FED275A8DED031A2DEEC6
:10234000051A8DED040AB1EE410AB4EE404AF1EEF1
:1023500010FAB0EE405A08DBB4EE414AB0EE445AEF
:10236000F1EE10FAC8BFB0EE415AB4EE403AF1EEC9
:1023700010FAB0EE404A08DBB4EE413AB0EE434A00
:10238000F1EE10FAC8BFB0EE414AB4EE402AF1EEC9
:1023900010FA8DED054A8DED065A8DED080A08DB21
:1023A000B4EE412AB0EE420AF1EE10FAC8BFB0EE28
:1023B000410ADDED16EADDED17CA99ED1F4ADDEDA4
:1023C00018BA99ED206ADDED19FA24EE2C2A2AEECE
:1023D0002E3A9DED1A9A33EE022A26EE2B3ADDEDC7
:1023E0001BDA33EE022A24EE093AB0EE445A8DEDA0
:1023F0000A4A2AEE2F4A9DED1D8A9DED1CEA34EE15
:10240000033A26EE2D4A9DED1EDA34EE033A25EE10
:10241000084A2AEE0E5AD9ED218A35EE044A26EEF4
:102420000D5A99ED23FA8DED096A35EE044A2BEE2B
:102430002C5A28EEAE6A36EE055A2FEE2B6A36EE8F
:10244000055A2BEE096A28EEAF7A37EE066A2FEEB0
:102450002D7A37EE066A2BEE087A68EE8E0AD9EDF1
:10246000259AD9ED24AA30EE877A6FEE0D0A30EE68
:10247000877A6CEEA90A6AEEAE1A71EEA00A6CEECB
:102480002B1A71EEA00A69EE291A6AEEAF2A72EED3
:10249000A11A6CEE2D2A72EEA11A68EE292A6AEEB4
:1024A0008E3A73EEA22A6CEE0D3A73EEA22A6CEE0F
:1024B000853A6EEE824A74EEA33A6BEEA04A74EE51
:1024C000A33A6CEE864A6EEE835A75EEA44A6BEE22
:1024D000A15A75EEA44A6CEE875A6EEE846A76EEC7
:1024E000A55A6BEEA26A76EEA55A69EE056A6FEE02
:1024F000827A28EE055A2EEE022A77EEA66A6DEE53
:10250000A07A32EE052A2DEE205A8DED020A77EEE2
:10251000A66A69EE067A2FEE830A35EE022A30EEBD
:10252000270A6DEEA17A28EE065A2EEE033A8DEDBB
:10253000112A9DED032A37EE800A33EE053A2DEE7F
:10254000215A8DED071A69EE077A2FEE841A35EEBF
:10255000033A28EE075A2EEE044A32EE000A31EE14
:10256000271A6DEEA27A34EE054A2DEE225A8DED31
:102570000F0A9DED040A37EE811A35EE044A0BA8C6
:102580008DED101A32EE231A30EE040A0146CDED1D
:102590000C4ACDED0D5ACDED0E6A8DED123A8DED52
:1025A0000B1A8DED130AFEF7F3FE9DED0E3A9DED2D
:1025B0000B4A9DED115A2FEE830A2EEE841A9DEDE3
:1025C0000F6A9DED0C7A31EE000A2EEE051ADDED54
:1025D000120A31EE000A2FEE861A2EEE872ADDED62
:1025E000101ADDED0D2A32EE011A2EEE202ADDED55
:1025F000134A32EE011A2FEEA12A6EEEA23A33EE02
:10260000822A6EEE243A33EE822A69EE033A6CEEA9
:10261000845A2DEE833A2BEE844A34EE033A2DEEA3
:10262000054A75EEA33A68EE055A34EE035A2DEECC
:10263000863A2BEE874A75EEA33A69EE065A6CEE9F
:10264000876A34EE033A2DEE204A76EEA55A68EEFC
:10265000206A74EE030A2DEEA13A2BEEA24A9DEDFC
:102660000A7A76EEA55A69EE216A6CEEA27A34EE09
:10267000033A2DEE244ADDED091A77EEA66A68EEDC
:10268000247A74EE034A27EE233A2AEE004A34EE07
:10269000033A21EE854A34EE033A27EE254A2AEE24
:1026A000016A77EEA66A36EE044A21EEA06A36EE9B
:1026B000046A27EE264A2AEE027A37EE044A21EE11
:1026C000A47A77EE041A2BEE234A28EE807A37EEAE
:1026D000044A2FEE057A69EEA33A2AEE800A37EE15
:1026E000044A2BEE257A68EE812A30EE230A2CEE7E
:1026F000055A32EE877A6FEE202A35EE005A29EE1F
:10270000A50A2AEE811A32EE877A6BEE262A68EE47
:10271000827A31EE000A2CEE201A77EEA22A6FEEB2
:10272000247A71EE000A29EEA60A2AEE821ADDED5D
:10273000056ADDED065A77EEA22A31EE000A2CEE8C
:10274000241ADDED027A71EE003A26EE860A23EEB7
:10275000251A31EE000A21EEA71A99ED1B2A31EE57
:10276000000A32EE002A26EE870A24EE251A31EE00
:10277000000A99ED1C1A62EEA74A34EE800A31EE87
:10278000001A26EEA00A65EE254A34EE800A63EEB2
:10279000A74AD9ED1D5A34EE800A35EE800A6FEE55
:1027A000864A63EE2E5A75EEA44A61EE8E5A75EE95
:1027B000A44A69EE065A63EE2C6A2DEE866A23EE71
:1027C0002B3A33EE063A21EE8D6A76EEA55A61EE8B
:1027D000886A36EE033A2FEE876A64EE2E1A31EEDF
:1027E000866A62EE8E1A76EEA55A31EE866A69EE38
:1027F000071A64EE2C6A2DEE877A24EE2B4A34EE0B
:10280000074A22EE8D7A76EEA11A62EE886A37EEDA
:10281000044A2FEEA07A65EE2E2A32EE877A63EE16
:102820008E2A76EEA11A32EE877A69EE202A65EEBC
:102830002C6A6DEEA00A25EE2B5A35EE205A63EE77
:102840008D0A76EEA22A63EE886A30EE855A68EE2B
:10285000A50A64EE8A3ADDED0A7A9DED098A73EEE7
:10286000A00A63EE2A3A76EEA22A73EEA00A6BEE75
:10287000253A64EEA76A6FEE255A64EE884A76EE32
:10288000A33A63EE296A74EEA54A23EE0C3A33EEBE
:10289000243A68EEA14A66EE0A5A75EEA44A64EE3E
:1028A0002A5A76EEA33A75EEA44A6BEE215A66EEEA
:1028B000276A6FEE211A26EE086A76EEA55A64EEB4
:1028C000296A36EE216A24EE0C4A34EE064A27EED7
:1028D0000A6A68EEA21A36EE216A65EE2A1A76EEC8
:1028E000A55A31EE866A6BEE221A67EE276A6FEE02
:1028F000222A27EE087A37EE227AD9ED1E2A76EEC2
:10290000A11A65EE296A25EE0C5A35EE075A32EE09
:10291000E07A89ED1E7A37EEE37A89ED1F7A38EE98
:10292000433A99ED227A89ED203A38EEE43A89ED7E
:10293000213A37EE653A89ED223A3FEE443A3AEED3
:10294000C64A99ED266A89ED244A9DED084A36EE7D
:10295000455A76EEA11A89ED265A9DED075AB4EE36
:10296000442A39EEE17A89ED233AF1EE10FAB0EE1D
:10297000443A89ED257A89ED1B2A89ED1C1A89EDE7
:102980001D0A25DA89ED1B3AB4EE441AF1EE10FA6D
:10299000B0EE442A2CDBB4EE451AF1EE10FAB0EE9C
:1029A000452AC8BF89ED1C2AB4EE440AF1EE10FA9C
:1029B00025DBB4EE450AF1EE10FAB0EE454AC8BF89
:1029C00089ED1D4A22B0BDEC108B01B0BDE8F08F3F
:1029D000B4EE452AF1EE10FAB0EE453AC8BF89EDE3
:1029E0001B3AB4EE441AF1EE10FAB0EE442AD2DAF1
:1029F00089ED1C2AB4EE440AF1EE10FAD9DA89ED19
:102A00001D4A22B0BDEC108B01B0BDE8F08F000074
:102A100070B52DED108B044608462146FEF784FF65
:102A200041F2E026C2F2000606F12800FEF750FC53
:102A300096ED0A0A96ED0B1A96ED0C2A96ED0D3AD4
:102A400022EE025A21EE027A63EE000A62EE002ABA
:102A500022EE032A21EE000A21EE014A23EE036A48
:102A600032EE000A61EE031A35EE061A34EE066AFB
:102A700030EE00BA34EE050AB7EE003A36EE066ADA
:102A800030EE000A31EE011A33EE469A31EEE26A78
:102A900033EE40CA94ED000A9FEDAF4A9FEDAF5A66
:102AA00033EE418A36EE06DA94ED012A94ED023ACD
:102AB00077EE608A37EE201A20EE046A2DEE057A52
:102AC00037EE066A22EE047A6BEE050A23EE044A1C
:102AD0002CEE055A30EE877A35EE044A30EE460A7F
:102AE00032EE472A33EE443A86ED020AB0EE4B0A44
:102AF00086ED032A86ED043A31EE01AA05F0B4F919
:102B000010EE100AFDF797FD9FED910B54EC105B52
:102B10002A462346FDF778FCFDF7A0FDB1EE4DDA1D
:102B2000B0EE4D0AF0EE4C0A0EEE100A05F032FA45
:102B300010EE100AFDF77FFD2A462346FDF764FCE0
:102B4000FDF78CFDB8EE000A28EE800AF0EE490A87
:102B50000FEE100A05F01EFAB0EE409AB0EE4B0AE6
:102B6000F0EE4C0A05F016FA10EE100AFDF763FDC0
:102B70002A462346FDF748FCFDF770FDB0EE4D0AEE
:102B80000BEE100A05F070F910EE100AFDF753FD78
:102B90002A462346FDF738FCFDF760FDB0EE4A0AF1
:102BA000F0EE480A0CEE100A05F0F4F99FED6C1AED
:102BB000B0EECC2AB4EE412AF1EE10FAB0EECB2AF8
:102BC00027DD9FED683AB0EECF4AB4EE432A9FED81
:102BD000663AF1EE10FAB4EE432A9FED643AC8BFAC
:102BE000B0EE4EBAF1EE10FAB4EE432A9FED603A21
:102BF000B8BFB0EE4EBAF1EE10FAB4EE434AB0EE02
:102C00004C3AB8BFB0EE4F3AF1EE10FAD8BFB0EE82
:102C100043CAB0EECE4AB4EE414AF1EE10FAB1EE3C
:102C2000403A1FDAB0EECF5AB4EE452AF1EE10FA70
:102C300006DA9FED502AB4EE425AF1EE10FA11DC9A
:102C4000B4EE414AF1EE10FAB0EE492AB4EE415A20
:102C5000B8BFB0EE402AF1EE10FAC8BFB0EE429A0B
:102C6000B1EE493A96ED060A9FED431A33EE400A5B
:102C7000B4EE410AF1EE10FA86ED053A1EDD9FED45
:102C80003F2A00BF30EE020AB4EE410AF1EE10FA1C
:102C900014DD30EE020AB4EE410AF1EE10FA0DDD59
:102CA00030EE020AB4EE410AF1EE10FA06DD30EE23
:102CB000020AB4EE410AF1EE10FAE3DC9FED301A9D
:102CC000B4EE410AF1EE10FA1EDA9FED2E2A00BF93
:102CD00030EE020AB4EE410AF1EE10FA14DA30EEE8
:102CE000020AB4EE410AF1EE10FA0DDA30EE020AF1
:102CF000B4EE410AF1EE10FA06DA30EE020AB4EE52
:102D0000410AF1EE10FAE3DB10EE100AFDF793FC36
:102D10002A462346FDF778FBFDF7A0FC9FED1A0A33
:102D200001EE100A31EE000AB5EE401AF1EE10FA8B
:102D3000B8BFB0EE401AB1EE4B0AB1EE4C2A86EDA8
:102D4000071A86ED080A86ED092ABDEC108B70BDC6
:102D5000F8C1631ADCA54C40CCCC4C3ECDCC4C3FEA
:102D6000000034420000DC4200008C42000070424F
:102D70000000B44200002043DB0F4940DB0FC9C014
:102D8000DB0F49C0DB0FC9400000B44310B5034856
:102D900000F024FE024800F021FE10BD9C0E002031
:102DA000080F002070B50546AC6AE06D00F05000D9
:102DB00098BBE06D40F40070E0652068006800F0AA
:102DC0000800A8B1206803F00DFF10B32068C068A8
:102DD00000F40050E8B9E06D20F48070E065E06D2B
:102DE00000F48050A8B9E06D40F00100E06510E00B
:102DF0002068C06800F0020058B9E06D20F48070CF
:102E0000E065E06D00F4805018B9E06D40F001001D
:102E1000E065204600F0CAFD0CE0FFE7E06D00F041
:102E2000100018B1204600F0D8FD03E0606D416B42
:102E30002846884770BD70B50546AC6AE06D40F025
:102E40004000E065206E40F004002066204600F05F
:102E5000C4FD70BD70B50446A56A284600F0BCFDEF
:102E600070BD000038B5044600200090206803F0D3
:102E7000A0FE00284FD1206880682849084048B14A
:102E8000E06D40F01000E065206E40F0010020662B
:102E9000012038BD206803F071FE00BF2048806823
:102EA00000F0E07000F4000080B11E4800681E4988
:102EB000B0FBF1F0401C00EB40008000009002E00D
:102EC0000098401E009000980028F9D101F098FD6C
:102ED00005461AE0206803F06CFE10B9206803F084
:102EE0004DFE01F08DFD401B02280ED920680068C0
:102EF00000F0010048B9E06D40F01000E065206E80
:102F000040F0010020660120C3E72068006800F05F
:102F100001000028DED00020BBE700003F00008059
:102F20000003005014010020400D030000BFFEE725
:102F300010B5024801F00BFA10BD0000D40F0020BC
:102F400010B5024801F003FA10BD0000740F002014
:102F500010B5024801F0FBF910BD0000C0110020BF
:102F600010B5024801F0F3F910BD00002012002056
:102F700010B5024801F0EBF910BD000080120020EE
:102F800030B50E4D0468AC4201D20D4901E00C4948
:102F900020310B460478083C1425B4FBF5F2446C50
:102FA000A40803EB84048464054C8034C46402F0F8
:102FB0001F050124AC40046530BD00000804024038
:102FC0000008024001794A1E064B03EB820242656B
:102FD000044A403282654A1E02F01F0301229A40D1
:102FE000C26570470009024030B5D0E913546C60E7
:102FF000446D14B1D0E916546C6090F8444004F06C
:103000001F050124AC40056C6C6004686360846833
:10301000102C04D10468A2600468E16003E0046835
:10302000A1600468E26030BD704772B600BFFEE781
:103030001B49087F012801D0032816D119490968C6
:1030400021F40071174A116000BF1146096841F46C
:10305000006111601146096821F40061116000BF30
:103060001146096841F400711160022801D003285B
:1030700011D100BF0B49096841F48051094A116020
:103080001146096821F48051116000BF114609689A
:1030900041F4806111600021014A117770470000FE
:1030A000F40000200020024000F0010129B106498F
:1030B000496941F00401044A51610349496941F4F5
:1030C0008031014A5161704700200240094A52692B
:1030D00022F4FC72C3B242EAC302064B5A611A469A
:1030E000526942F002025A611A46526942F4803231
:1030F0005A6170470020024010B50849496941F003
:103100000101064C6161026000BF00BF00BFBFF358
:103110006F8F00BF00BF00BF436010BD00200240A2
:10312000F0B50246402314460D460C4E766946F42F
:1031300080260A4F7E6100BFEFF31086304672B6DC
:1031400000BF2E682660241D2D1D5E1EF3B2002BCD
:10315000F7D100BF80F3108800BFF0BD002002400F
:1031600070B5054601F04CFC064606E001F048FC4F
:10317000801BA84201D9032070BD1A48006900F4E1
:103180008030B0F5803FF1D0164800694CF2FA313A
:1031900000EA0104CCB11448406820431249486059
:1031A00000BF04F0404030B10E48806904F0404157
:1031B00008430C49886124F0404018B124F0404095
:1031C0000849086100BF0120D6E70648006900F001
:1031D000010020B100BF01200249086100BF0020AA
:1031E000CAE7000000200240F400002010B586B0BD
:1031F000044601F0F9FA00BF1248806940F04040EF
:10320000104988614CF2FA30086100BF002002903A
:1032100003900490059001900290A4F10060C00A10
:10322000049001200390059001A902A801F0ECF997
:1032300020B101F069FA012006B010BD01F064FA76
:103240000020F9E70020024003490A6802604A684A
:10325000426089688160704700F8010870B50546D2
:1032600000202860A880A871284608F0F3FC09A077
:1032700004F0F4FB002406E02A5D21460BA004F0D4
:10328000EDFB601CC4B2072CF6DB0CA004F0E6FBDF
:1032900070BD00005265616420434F442066726F28
:1032A0006D20464C4153483A200D0A005B25645D71
:1032B0003D30782530327820000000000D0A0000F3
:1032C00030B587B0044601F08FFA002002900390D9
:1032D000049005902068029060680390A0680490B4
:1032E000134D002100910191DDE90201CDE90001BA
:1032F00029460020DDE9002301F016FA20B101F093
:1033000003FA012007B030BDDDE90401CDE9000179
:1033100005F108010020DDE9002301F005FA18B1EC
:1033200001F0F2F90220EDE701F0EEF90020E9E703
:1033300000F8010870B505460AA004F08FFB0024D0
:1033400006E02A5D21460DA004F088FB601CC4B293
:10335000072CF6DB08A004F081FB284608F0F4FCFB
:1033600070BD0000577269746520434F4420746F2C
:1033700020464C4153483A200D0A00005B25645D0D
:103380003D307825303278200000000070477047CB
:1033900070477047704700002DE9F0439BB004462A
:1033A0000E464FF00008306800B100BF00BF94F82F
:1033B0005800012803D102201BB0BDE8F083012092
:1033C00084F8580000BF0020179018902068B0F1D2
:1033D000A04F02D13148009001E0002000900098F9
:1033E00050B9E06D40F02000E06500BF002084F897
:1033F000580000BF0120DFE7009803F0EEFB07460E
:10340000206803F0EAFBD8BBD7BB254D306800B37A
:1034100094F83800716841EA4030A96821F46041AD
:103420000843A8604FF0A04003F0C8FB81461B484A
:1034300003F0C4FB49EA0009B9F1000F27D1B168D4
:1034400030680843A96840F61F7291430843A8609A
:103450001DE0A86820F46040A8604FF0A04003F091
:10346000ADFB81460D4803F0A9FB49EA0009B9F11B
:10347000000F0CD1A86840F61F718843A86006E0D1
:10348000FFE7E06D40F02000E0654FF0010800BF6D
:10349000002084F8580000BF40468DE7000100502E
:1034A000000300502DE9F84F05460C464FF0000A86
:1034B00000200090FE49E068884200D000E000BF94
:1034C00000BF95F85800012802D10220BDE8F88F0E
:1034D000012085F8580000BF286803F079FB002818
:1034E0007DD12968D4E9002001F1300CC0F3012B13
:1034F0000CEB8B03D3F800C000F01F0E4FF01F0B36
:103500000BFA0EFB2CEA0B0C00F01F0BC2F3846EBF
:103510000EFA0BFE4CEA0E0CC3F800C000BF286880
:1035200003F056FB8146286803F03EFB8046B9F164
:10353000000F64D1B8F1000FFBD1A068B0F1004FCB
:103540000AD121680022286803F05EFB4FF0004199
:10355000286803F07EFB08E0A2682168286803F071
:1035600053FB0021286803F074FB60692968C9686F
:10357000C1F3C101490000FA01F7206904283FD0D6
:1035800028682268216900F1600C0CEB8103D3F8F4
:1035900000C0DFF820B30CEA0B0C02F0F84B4BF044
:1035A000004B4BEA070B4CEA0B0CC3F800C000BF02
:1035B0002868A269216900F1600C0CEB8103D3F843
:1035C00000C02CF0807C4CEA020CC3F800C000BFA5
:1035D0002868227F2169012A02D1520601E0C6E152
:1035E0000022134600F1600C0CEB8102D2F800C0FF
:1035F0002CF0007C4CEA030CC2F800C000BFA7E02E
:103600000021286803F0C7FAC0F3120030B9002186
:10361000286803F0C0FAC0F3846007E0002128683E
:1036200003F0B9FA90FAA0F0B0FA80F02168C1F383
:10363000120119B92168C1F3846104E0216891FA8B
:10364000A1F1B1FA81F1884204D100221146286823
:1036500003F0F4FA0121286803F09DFAC0F3120088
:1036600030B90121286803F096FAC0F3846007E0BE
:103670000121286803F08FFA90FAA0F0B0FA80F0E8
:103680002168C1F3120119B92168C1F3846104E012
:10369000216891FAA1F1B1FA81F1884204D10022A6
:1036A0000121286803F0CAFA0221286803F073FA9E
:1036B000C0F3120030B90221286803F06CFAC0F39D
:1036C000846007E00221286803F065FA90FAA0F010
:1036D000B0FA80F02168C1F3120119B92168C1F371
:1036E000846104E0216891FAA1F1B1FA81F1884284
:1036F00004D100220221286803F0A0FA03212868DF
:1037000003F049FAC0F3120030B90321286803F02E
:1037100042FAC0F3846007E00321286803F03BFA13
:1037200090FAA0F0B0FA80F02168C1F3120119B943
:103730002168C1F3846104E0216891FAA1F1B1FA32
:1037400081F1884204D100220321286803F076FA2F
:10375000286803F02EFA002872D12868E2682168F0
:10376000D0F8B030C1F3120C23EA0C0302F0180BAE
:10377000DFF844C12CFA0BFC0CEA010C43EA0C0301
:10378000C0F8B03000BF4A49E068884258D1236889
:10379000C3F312031BB92368C3F3846304E02368F3
:1037A00093FAA3F3B3FA83F35B1C03F01F03092B13
:1037B0003ED82368C3F312031BB92368C3F38463A1
:1037C00004E0236893FAA3F3B3FA83F35B1C03F0DA
:1037D0001F034FF0010C0CFA03FC2368C3F3120320
:1037E0001BB92368C3F3846304E0236893FAA3F34B
:1037F000B3FA83F35B1C03F01F034CEA836C23686A
:10380000C3F312031BB92368C3F3846304E0236882
:1038100093FAA3F3B3FA83F35B1C03F01F0303EBE8
:1038200043034FF0000B4BEA03534CEA030347E01A
:103830002368C3F3120323B92368C3F3846305E049
:1038400043E0236893FAA3F3B3FA83F35B1C03F01A
:103850001F034FF0010C0CFA03FC2368C3F312039F
:103860001BB92368C3F3846304E0236893FAA3F3CA
:10387000B3FA83F35B1C03F01F034CEA836C2368E9
:10388000C3F312031BB92368C3F3846304E0236802
:1038900093FAA3F3B3FA83F35B1C03F01F030A3B11
:1038A00003EB43034FF0007B4BEA035306E00000B9
:1038B00000007F4000F0FF03FFFF07004CEA030316
:1038C0001946A268286803F09FF92F49206808402C
:1038D00050B300BF2D48806800F0E07600BF2C494F
:1038E0002068884203D02B49206888421DD106F405
:1038F0000000D0B92868B0F1A04F3ED146F40001D5
:10390000224803F095F9244800682449B0FBF1F0FF
:10391000401C00EB40008000009002E00098401E38
:10392000009000980028F9D127E01D4920688842BE
:103930000CD106F0807048B91A49286888421CD01A
:1039400046F08071114803F073F916E016492068BB
:10395000884212D106F4800078B91249286888425A
:103960000BD046F48001094803F062F905E0E86DE8
:1039700040F02000E8654FF0010A00BF002085F804
:10398000580000BF5046A1E5000008800003005029
:10399000000021C31000C09014010020400D03005E
:1039A000000052C700010050000084CB0168B1F153
:1039B000A04F03D10021054A117006E0044A0168B6
:1039C000914202D10121034A117070470700002083
:1039D0000001005008000020704770472DE9F84FA3
:1039E0000446002000902068056820684668C548A5
:1039F00003F0CCF8074605F00200022811D106F0CA
:103A0000020002280DD1E06D00F0100018B9E06D41
:103A100040F40060E0652046FFF7B8FC0220216812
:103A2000086005F00400042803D106F0040004280F
:103A300007D005F0080008285FD106F00800082824
:103A40005BD1E06D00F0100018B9E06D40F400703B
:103A5000E065206803F0C6F8002848D0AA4920682D
:103A6000884202D14FF0A04000E0206821688842DF
:103A700004D01FB1052F01D0092F03D12068D0F841
:103A80000C800AE0A0492068884202D14FF0A04093
:103A900000E020688346DBF80C8008F40050B0F5A5
:103AA000005F24D02068006800F0080008281ED1BC
:103AB000206803F08DF890B92068406820F00C0071
:103AC00021684860E06D20F48070E065E06D00F4EE
:103AD000805060B9E06D40F00100E06507E0E06D06
:103AE00040F01000E065206E40F0010020662046A6
:103AF000FFF75CFF0C202168086005F020002028FB
:103B000003D106F02000202807D005F0400040280F
:103B100072D106F0400040286ED1E06D00F0100038
:103B200018B9E06D40F40050E0652068C16C01F404
:103B3000C07109B9012100E000218A4600BF206858
:103B400003F050F8814670492068884202D14FF056
:103B5000A04000E020682168884204D01FB1062FF1
:103B600001D0072F03D12068D0F80C800AE0664905
:103B70002068884202D14FF0A04000E020688346D0
:103B8000DBF80C80BAF1000F30D008F0007028B1DB
:103B9000B9F1000F2AD008F4005038BB2068006843
:103BA00000F04000402821D108F40010F0B920684E
:103BB00002F0FAFF90B92068406820F060002168A8
:103BC0004860E06D20F48050E065E06D00F48070A6
:103BD00060B9E06D40F00100E06507E0E06D40F0A5
:103BE0001000E065206E40F0010020662046FFF7DF
:103BF000CEFB60202168086005F0800080280DD190
:103C000006F08000802809D1E06D40F48030E06546
:103C1000204600F0A9F980202168086005F4807032
:103C2000B0F5807F0FD106F48070B0F5807F0AD1A7
:103C3000E06D40F40030E0652046FFF7AAFB4FF44A
:103C400080702168086005F40070B0F5007F0FD126
:103C500006F40070B0F5007F0AD1E06D40F48020DA
:103C6000E0652046FFF796FB4FF40070216808607E
:103C700005F0100010282AD106F01000102826D1D7
:103C8000E06B10B90120009010E047B100BF1D4863
:103C9000806800F4604048B10120009006E0206890
:103CA000C06800F0010008B10120009000980128D0
:103CB0000AD1E06D40F48060E065206E40F00200C3
:103CC00020662046FFF789FE10202168086005F471
:103CD0008060B0F5806F13D106F48060B0F5806F1E
:103CE0000ED1E06D40F48040E065206E40F00800A9
:103CF00020664FF48060216808602046FFF748FB8B
:103D0000BDE8F88F00030050000100502DE9F84392
:103D100004464FF000080020009014B90120BDE8CF
:103D2000F883606920B194F82400012800D100BF15
:103D3000E06D30B9204600F019F90020206684F8C3
:103D4000580020688168C1F3407131B120688168F2
:103D50007E4A1140816000BF00BF206802F033FF3F
:103D6000B0B9206881687A4A114041F08051816081
:103D700000BF784800687849B0FBF1F0401C400073
:103D8000009002E00098401E009000980028F9D1B1
:103D9000206802F018FF48B9E06D40F01000E065BF
:103DA000206E40F0010020664FF00108206802F00C
:103DB0000FFF0646E06D00F01000002877D1002EBE
:103DC000FCD1E06D20F4807040F00200E0652068D6
:103DD00002F0EFFEB0B94FF0A04002F0EAFE8146DB
:103DE0005E4802F0E6FE49EA0009B9F1000F09D188
:103DF00060685B49896821F47C110143584A9160ED
:103E000000BF00BF607FE16B41EA4030E1680843DA
:103E1000A168084394F8241040EA014594F824006E
:103E2000012803D1208D401E45EA4045E06A28B1B3
:103E3000A08D00F47870216B084305432068C068AA
:103E40004849084028432168C8602068006920F07C
:103E50004060616B084321680861206802F0A4FE9D
:103E60000746002E50D1EFBB207F002141EA803170
:103E700094F8380041EA40052068C06844F2020125
:103E8000884328432168C860206988B12068006998
:103E900040F48030216808612068D0F8C0006FF3DA
:103EA0000D00216908432168C1F8C0000EE045E01B
:103EB0002068006920F48030216808612068D0F80B
:103EC000C0006FF30D002168C1F8C00094F84000F5
:103ED000012813D1606C40F00101A06C0843E16C33
:103EE000084300E010E0216D08432168096940F2B1
:103EF000FC72914308432168086105E0206800696D
:103F000020F00100216808616069012809D120685A
:103F1000006B20F00F00216A491E084321680863E6
:103F200005E02068006B20F00F0021680863E06D59
:103F300020F0020040F00100E06505E0E06D40F097
:103F40001000E0654FF001084046E8E6C0FFFF5F63
:103F5000C0FFFF7F14010020400D0300000100504E
:103F6000000300500740F0FF7047000010B598B004
:103F70000446142113A8FCF795F9442102A8FCF784
:103F800091F92068B0F1A04F5ED14FF4004002904B
:103F90008003119002A801F095F908B1FFF745F8E8
:103FA0005C480068401C5B490860084600680128BE
:103FB0000DD100BF5848C06C40F400505649C86449
:103FC0000846C06C00F40050019000BF00BF00BF65
:103FD0005148C06C40F002004F49C8640846C06CAC
:103FE00000F00200019000BF00BFC814139003202E
:103FF00014900020159013A9484800F00DFC484883
:104000004849086005204860002146488160C16039
:10401000802101610021416181612021C161002174
:10402000016200F013FA08B1FEF7FFFF00BF3D4840
:104030006065846200BF00221146122001F05AF828
:10404000122001F043F863E03749206888425FD1CD
:10405000C00102908003119002A801F033F908B169
:10406000FEF7E3FF2B480068401C2A490860084619
:10407000006801280DD100BF2748C06C40F40050F3
:104080002549C8640846C06C00F40050019000BF88
:1040900000BF00BF2048C06C40F001001E49C8644A
:1040A0000846C06C00F00100019000BF00BF012075
:1040B0001390032014900020159013A94FF0904006
:1040C00000F0AAFB164814381849086024204860FC
:1040D000002116488160C160802101614900416171
:1040E000890081612021C1610021016200F0AEF9E7
:1040F00008B1FEF79AFF00BF0C486065846200BFFC
:1041000000221146122000F0F5FF122000F0DEFF21
:1041100018B010BDE4000020001002400004004868
:104120001C000240740F002000010050D40F00203A
:104130002DE9F04104460F4690463D4802F026FD29
:104140000646206802F044FD00286DD100BF94F8B7
:104150005800012802D10220BDE8F081012084F836
:10416000580000BF1EB1052E01D0092E56D12046A1
:10417000FEF778FE0546002D4BD1E06D40F601615B
:10418000884340F48070E0652A492068884202D163
:104190004FF0A04000E020682168884200D01EB99E
:1041A000E06D20F48010E065E06D00F4805020B1F7
:1041B000206E20F00600206601E0002020661E48E8
:1041C000616DC8621D48616D08631D48616D48637B
:1041D0001C202168086000BF002084F8580000BF40
:1041E0002068406840F01000216848602068C0687E
:1041F00040F001002168C860226802F14001434696
:104200003A46606D00F08AF90546206802F0F4FC39
:104210000BE000BF002084F8580006E0012500BF35
:10422000002084F8580000E00225284694E70000AA
:104230000003005000010050A52D0008552E000875
:10424000372E00080146002091F82520022A03D0CD
:104250000422CA63012027E00A68126822F00E02D5
:104260000B681A608A6C126822F480728B6C1A6078
:104270000A68126822F001020B681A6091F8442063
:1042800002F01F0301229A400B6C5A60D1E91332ED
:104290005A604A6D42B14A6D126822F480724B6DC9
:1042A0001A60D1E916325A60012281F8252000BF38
:1042B000002281F8242000BF704770B50446002515
:1042C00094F8250002280BD00420E063012084F834
:1042D000250000BF002084F8240000BF012534E041
:1042E0002068006820F00E002168086020680068DF
:1042F00020F0010021680860A06C006820F4807044
:10430000A16C086094F8440000F01F01012088406F
:10431000216C4860D4E913104860606D40B1606D55
:10432000006820F48070616D0860D4E91610486060
:10433000012084F8250000BF002084F8240000BF7D
:10434000A06B10B12046A16B8847284670BD70B5A0
:104350000446206C05682068066894F8440000F064
:104360001F01042088402840E0B106F00400C8B1D5
:104370002068006800F0200028B92068006820F05C
:1043800004002168086094F8440000F01F01042034
:104390008840216C4860206B002856D02046216B55
:1043A000884752E094F8440000F01F010220884042
:1043B000284018B306F0020000B32068006800F03F
:1043C000200040B92068006820F00A0021680860D9
:1043D000012084F8250094F8440000F01F01022019
:1043E0008840216C486000BF002084F8240000BF92
:1043F000E06A50B32046E16A884726E094F844001A
:1044000000F01F01082088402840F0B106F00800A5
:10441000D8B12068006820F00E002168086094F888
:10442000440000F01F0101208840216C48600120F9
:10443000E06384F8250000BF002084F8240000BF5A
:10444000606B10B12046616B884770BD70B5044643
:104450000CB9012070BD2F49206888420BD22E492B
:104460002068401A1421B0FBF1F0800060642A48F3
:10447000083820640AE027492068401A1421B0FB5C
:10448000F1F080006064234808382064022084F83A
:1044900025002068056847F6F0708543D4E90201DD
:1044A00008432169084361690843A1690843E16938
:1044B0000843216A08430543206805602046FEF74B
:1044C0005FFDA068B0F5804F01D1002060602079C9
:1044D000A16C0860D4E913104860606860B160683E
:1044E000042809D82046FEF76DFD0020616D0860A4
:1044F000D4E91610486003E000206065A065E0651F
:104500000020E063012084F82500002084F82400C6
:1045100000BF9FE708040240080002402DE9F04177
:1045200004460D4616461F464FF0000800BF94F89B
:104530002400012802D10220BDE8F081012084F886
:10454000240000BF94F8250001283FD1022084F800
:1045500025000020E0632068006820F00100216849
:1045600008603B46324629462046FEF73DFD206B5B
:1045700030B12068006840F00E00216808600BE050
:104580002068006820F00400216808602068006846
:1045900040F00A0021680860A06C006800F48030D8
:1045A00028B1A06C006840F48070A16C0860606D58
:1045B00028B1606D006840F48070616D086020680B
:1045C000006840F001002168086006E000BF00209C
:1045D00084F8240000BF4FF002084046ACE700001A
:1045E00070B5044600F00CFA06462546681C10B16A
:1045F00004480068054400BF00F002FA801BA8428E
:10460000FAD370BDF00000202DE9F04104460F46BA
:1046100000BF3B480078012802D10220BDE8F081AC
:1046200001203749087000BF4FF47A70FEF798FDFB
:104630000646002E5DD1324948603248006800F4D9
:10464000007090B12F48006800F4806048B12D4898
:10465000006820F480602B4908600320284908770F
:1046600015E001202649087711E02648006800F48B
:10467000806048B12348006820F4806021490860C8
:1046800002201F49087702E000201D4908772068B2
:1046900001280ED16068FEF707FD4FF47A70FEF72F
:1046A0005FFD06461748406920F00400154948613F
:1046B0001DE04FF0FF303860A56812E028466168C1
:1046C000FEF704FD4FF47A70FEF74AFD06460D48EA
:1046D000406920F4FD700B4948610EB13D6005E072
:1046E0006D1CD4E902010844A842E7D800BFFEF7D8
:1046F0009FFC00BF00200249087000BF30468DE7D4
:10470000F40000200020024001200649496941F0E0
:104710000041044A51611146496901F0004101B16B
:1047200000207047002002402DE9F04704468846EB
:1047300015461E464FF0000900BF294800780128A1
:1047400002D10220BDE8F08701202549087000BF92
:104750004FF47A70FEF704FD0746002F38D1204948
:1047600048602048006800F4806048B11D48006837
:1047700020F480601B49086002201949087702E094
:104780000020174908773CB92A4633464046FEF7D1
:10479000B3FC4FF001090BE0012C01D0022C07D132
:1047A00029464046FEF7BCFC022C01D14FF480297B
:1047B0004FF47A70FEF7D4FC0746B9F1000F05D02C
:1047C0000848406920EA090006494861FEF730FCC4
:1047D00000BF00200249087000BF3846B2E7000061
:1047E000F40000200020024000200849496901F03F
:1047F000004151B10649054A916006499160114650
:10480000496901F0004101B10120704700200240D8
:1048100023016745AB89EFCD78B502460B460021F1
:10482000CAE001268E401D6805EA0604002C73D0FC
:104830001D7905F00305012D04D01D7905F0030550
:10484000022D13D190684E000325B540A8434E00B9
:10485000DD68B54028439060506801258D40A8432D
:104860001D79C5F300158D40284350601D7905F072
:104870000305032D09D0D0684E000325B540A84399
:104880004E009D68B5402843D0601D7905F00305B2
:10489000022D13D1CE0802F1200555F826004D0750
:1048A000EE0E0F25B540A8434E07F60E1D69B54024
:1048B0002843CE0802F1200545F8260010684E0076
:1048C0000325B540A8431D7905F003054E00B5400A
:1048D000284310605D6805F44035002D6BD000BFA3
:1048E000384D2D6E45F00105364E356635462D6E38
:1048F00005F00105009500BF00BF4FEAB6358E08F0
:1049000055F826008D072E0F0F25B540A843B2F1AC
:10491000904F02D100251AE04DE02B4DAA4201D163
:10492000012514E0294DAA4201D102250FE0284DAE
:10493000AA4201D103250AE0264DAA4201D104254D
:1049400005E0254DAA4201D1052500E006258E0788
:10495000360FB5402843214D8E0845F82600204DDE
:104960002868A0435D6805F4801505B120431C4DFF
:1049700028602D1D2868A0435D6805F4001505B169
:104980002043174D2D1D2860154D2D1F2868A0436D
:104990005D6805F4003505B12043114D2D1F2860D9
:1049A0002D1F2868A0435D6805F4803505B12043BC
:1049B0000B4D083D2860491C1D68CD40002D7FF43B
:1049C00030AF78BD001002400004004800080048E5
:1049D000000C004800100048001400480800014086
:1049E00008040140024613690B400BB1012000E0AE
:1049F000002070470AB1816100E0816270470000C9
:104A00000148006870470000E8000020024692F864
:104A1000410020282DD100BF92F84000012801D18B
:104A200002207047012082F8400000BF242082F855
:104A300041001068006820F00100136818601068D9
:104A4000006820F4805013681860106800680843FC
:104A5000136818601068006840F00100136818605F
:104A6000202082F8410000BF002082F8400000BFF3
:104A7000D7E70220D5E710B502460B4692F8410071
:104A800020282AD100BF92F84000012801D102203D
:104A900010BD012082F8400000BF242082F84100B0
:104AA0001068006820F00100146820601068016838
:104AB00021F4706141EA0321106801601068006808
:104AC00040F0010014682060202082F8410000BFFF
:104AD000002082F8400000BFDAE70220D8E700009B
:104AE00010B504460CB9012010BD94F8410028B956
:104AF000002084F84000204600F0D8F9242084F8F3
:104B000041002068006820F00100216808606068AA
:104B100020F07060216808612068806820F40040FF
:104B200021688860E068012805D1A06840F4004051
:104B30002168886004E0A06840F40440216888602F
:104B4000E068022806D12068406840F400602168CF
:104B5000486005E02068406820F4006021684860F3
:104B60002068406813490843216848602068C0688D
:104B700020F400402168C860D4E904010843A16919
:104B800040EA01202168C860D4E907010843216890
:104B900008602068006840F001002168086000207B
:104BA0006064202084F841000020206384F84200E3
:104BB00000BF99E7008000022DE9F84304468946CA
:104BC00016461F46DDF8208094F84100202873D156
:104BD00000BF94F84000012802D10220BDE8F8830C
:104BE000012084F8400000BFFFF70AFF05461923A3
:104BF0000122D1032046009501F0BAFE08B1012040
:104C0000ECE7222084F84100102084F842000020C4
:104C10006064666267856063608DFF280CD9FF2041
:104C200020853C48009094F828204FF08073494636
:104C3000204601F081FE0BE0608D20853548009014
:104C400094F828204FF000734946204601F074FE86
:104C50003FE02A464146204601F0CCFE08B1012043
:104C6000BCE72068406A616A0870606A401C606244
:104C7000208D401E2085608D401E6085608D40B374
:104C8000208D30BB4346002280212046009501F054
:104C90006FFE08B10120A1E7608DFF280DD9FF202C
:104CA00020850020009094F828204FF0807349461A
:104CB000204601F041FE0CE02AE0608D20850020B6
:104CC000009094F828204FF000734946204601F0E8
:104CD00033FE608D0028BCD12A464146204601F0B3
:104CE000EBFE08B1012079E720202168C861206827
:104CF00040680949084021684860202084F8410044
:104D0000002084F8420000BF84F8400000BF65E73F
:104D1000022063E70024008000E800FE2DE9F84F40
:104D200004468A4617469846DDF8289094F84100D4
:104D3000202878D100BF94F84000012802D1022039
:104D4000BDE8F88F012084F8400000BFFFF758FE4F
:104D5000054619230122D1032046009501F008FEE3
:104D600008B10120ECE7212084F84100102084F8EC
:104D70004200002060646762A4F82A806063608D4E
:104D8000FF2804D9FF2020854FF0807603E0608D56
:104D900020854FF00076208DC0B1606A00782168D0
:104DA0008862606A401C6062608D401E6085208D54
:104DB000401E20853B48009094F82800401CC2B259
:104DC00033465146204601F0B7FD08E035480090D3
:104DD00094F8282033465146204601F0ADFD3FE0CF
:104DE0002A464946204601F097FE08B10120A7E770
:104DF000606A007821688862606A401C6062608D29
:104E0000401E6085208D401E2085608D40B3208D22
:104E100030BB4B46002280212046009501F0A8FDC2
:104E200010B101208CE73AE0608DFF280CD9FF20FB
:104E300020850020009094F828204FF08073514680
:104E4000204601F079FD0BE0608D20850020009068
:104E500094F828204FF000735146204601F06CFD75
:104E6000608D0028BCD12A464946204601F024FE28
:104E700008B1012064E720202168C86120684068EB
:104E80000949084021684860202084F8410000203A
:104E900084F8420000BF84F8400000BF50E70220C1
:104EA0004EE700000020008000E800FE10B598B03A
:104EB0000446142113A8FBF7F5F9442102A8FBF7D7
:104EC000F1F92A49206888424ED1801502900020CD
:104ED0000A9002A800F0F6F908B1FEF7A6F800BFA4
:104EE0002348C06C40F001002149C8640846C06CEA
:104EF00000F00100019000BF00BF00BF0846C06C79
:104F000040F00400C8640846C06C00F00400019042
:104F100000BF00BF88151390122014900020159038
:104F200016900220179013A94FF09040FFF774FCE1
:104F30004FF40060139012201490002015901690EA
:104F40000820179013A90B48FFF766FC00BF08481C
:104F5000806D40F08040064988650846806D00F00D
:104F60008040019000BF00BF18B010BD0078004025
:104F7000001002400008004870B504460CB901203A
:104F800070BD4CF6CC402168086045F25550216850
:104F90000860D4E9001048602168A0688860FFF7C5
:104FA0002FFD05460BE0FFF72BFD401B312806D9EE
:104FB0002068C06800F0070008B10320E0E720681F
:104FC000C06800F007000028EDD120680169E068A2
:104FD000814203D02168E068086103E04AF6AA2014
:104FE000216808600020CBE701464AF6AA200A683B
:104FF00010600020704700000348006803490968FA
:105000000844014908607047E8000020F0000020D3
:1050100010B50024032000F0ABF80F2000F008F8D2
:1050200008B1012401E000F02FF8204610BD000077
:1050300070B50446002511480068D8B10F480068D3
:105040004FF47A71B1FBF0F00D490968B1FBF0F64D
:10505000304600F039FF58B9102C07D20022214603
:10506000501E00F047F80748046004E0012502E004
:10507000012500E00125284670BD0000F000002059
:1050800014010020EC00002008B500BF0E48006E9F
:1050900040F001000C4908660846006E00F001006F
:1050A000009000BF00BF00BF0846806D40F08050F8
:1050B00088650846806D00F08050009000BF00BFFA
:1050C00000F0F6F808BD0000001002400146084656
:1050D00000280DDB00BF00BF00F01F0301229A4033
:1050E00043099B0003F1E023C3F8002100BF00BF88
:1050F00000BF70472DE9F05F80460D46164602F06E
:10510000E9FC074639462A46334601F00700C0F15C
:10511000070ABAF1040F02D94FF0040A01E0C0F106
:10512000070AD14600F1040ABAF1070F02D24FF084
:10513000000A01E0A0F1030AD4464FF0010A0AFA7E
:1051400009FAAAF1010A0AEA020A0AFA0CFA4FF06D
:10515000010B0BFA0CFBABF1010B0BEA030B4AEA58
:105160000B042146404602F0BDFCBDE8F09F000064
:1051700000BF00F00702064B19684FF6FF03194005
:10518000044B0B4343EA0221014B196000BF7047F7
:105190000CED00E00000FA0502468ABB41480068B9
:1051A00000F4C060B0F5806F2BD13E4880300068BD
:1051B00020F480703B4BC3F880001846006820F450
:1051C000C06040F4007018603748006832235843CC
:1051D000364BB0FBF3F0411C00E0491E31484069FA
:1051E00000F48060B0F5806F01D10029F5D12D4821
:1051F000406900F48060B0F5806F51D103207047A2
:1052000008E028488030006820F48070254BC3F8FF
:10521000800045E0B2F5007F3AD12248006800F4F2
:10522000C060B0F5806F2AD11E488030006840F41D
:1052300080701C4BC3F880001846006820F4C060E2
:1052400040F4007018601848006832235843174B28
:10525000B0FBF3F0411C00E0491E1248406900F425
:105260008060B0F5806F01D10029F5D10D4840690B
:1052700000F48060B0F5806F12D10320BFE70948C9
:105280008030006840F48070064BC3F8800007E06F
:105290000448006820F4C06040F48060014B18604E
:1052A0000020ACE7007000401401002040420F00D5
:1052B0000348806840F480400149886070470000DE
:1052C000007000402DE9F84304460027B8462068E6
:1052D00000F40020B0F5002F73D1B946D348806D9B
:1052E00000F0805078B900BFD048806D40F0805009
:1052F000CE4988650846806D00F08050009000BF60
:1053000000BF4FF00109CA48006840F48070C849E6
:105310000860FFF775FB064606E0FFF771FB801B90
:10532000022801D9032705E0C148006800F4807015
:105330000028F2D000BF002F46D1BC489030006852
:1053400000F44075CDB1206CA84216D0B74890301B
:10535000006820F44075B548D0F8900040F48030E3
:10536000B249C1F890000846D0F8900020F480308F
:10537000C1F890000846C0F8905005F00100A0B1B7
:10538000FFF73EFB064608E0FFF73AFB801B41F2C1
:105390008831884201D9032706E0A448903000688C
:1053A00000F002000028EFD000BF5FB99F489030A6
:1053B000006820F44070216C08439C49C1F89000BB
:1053C00003E00CE0B84600E0B846B9F1010F05D1A2
:1053D0009648806D20F080509449886500BF207801
:1053E00000F0010048B191488830006820F00300C7
:1053F000616808438D49C1F88800207800F00200F8
:10540000022809D189488830006820F00C00A16882
:1054100008438649C1F88800207800F00400042879
:1054200009D182488830006820F03000E1680843E4
:105430007E49C1F88800207800F00800082809D1CA
:105440007A488830006820F0C00021690843774915
:10545000C1F88800207800F02000202809D1734886
:105460008830006820F44060616908436F49C1F8E2
:105470008800207800F04000402809D16B4888302F
:10548000006820F44050A16908436849C1F88800C9
:10549000207800F08000802809D1644888300068B6
:1054A00020F44040E16908436049C1F88800208841
:1054B00000F48070B0F5807F09D15C4888300068C6
:1054C00020F44030216A08435849C1F888002088F8
:1054D00000F40070B0F5007F09D1544888300068AE
:1054E00020F44020616A08435049C1F888002088B0
:1054F00000F48060B0F5806F13D14C4888300068AC
:1055000020F44010A16A0843484988310860A06A25
:10551000B0F5801F05D14548C06840F4801043496C
:10552000C860208800F40060B0F5006F13D13F48D8
:105530008830006820F44000E16A08433B49883124
:105540000860E06AB0F5800F05D13848C06840F4C3
:1055500080103649C860208800F48050B0F5805F24
:1055600013D132488830006820F04070216B084326
:105570002E4988310860206BB0F1807F05D12B481F
:10558000C06840F480102949C860208800F40050A9
:10559000B0F5005F13D125488830006820F04060E6
:1055A000616B0843214988310860606BB0F1006F7E
:1055B00005D11E48C06840F480101C49C86020888E
:1055C00000F48040B0F5804F13D11848883000684F
:1055D00020F04060A16B0843144988310860A06B3B
:1055E000B0F1006F05D11148C06840F480100F4938
:1055F000C860208800F40040B0F5004F13D10B487C
:105600008830006820F04050E16B0843074988313A
:105610000860E06BB0F1805F05D10448C06840F4D9
:1056200080300249C8604046BDE8F883001002405F
:10563000007000402DE9F04104460D464FF000088F
:1056400014B90120BDE8F0817D48006800F00F002A
:10565000A8420ED27A48006820F00F00284378490B
:1056600008600846006800F00F00A84201D0012041
:10567000E8E7207800F00100002864D06068032883
:1056800023D17048006800F0007008B90120D9E704
:1056900001F04AFD06466C48864237D96948806861
:1056A00000F0F00030B1207800F0020002282DD187
:1056B000A06858BB6348806820F0F00040F080008C
:1056C000604988604FF0800820E06068022806D1B9
:1056D0005C48006800F4003040B90120B2E7594846
:1056E000006800F4806008B90120ABE700F0DEF844
:1056F00006465548864209D95248806820F0F00095
:1057000040F080004F4988604FF080084D48806825
:1057100020F00300616808434A498860FFF770F988
:10572000074608E0FFF76CF9C01B41F28831884258
:1057300001D9032086E74348806800F00C006168C7
:10574000B0EB810FEED1207800F00200022820D1CA
:10575000207800F00400042805D13A48806840F41D
:10576000E06038498860207800F00800082807D1F8
:105770003448806820F4605040F4E060314988602B
:105780003048806820F0F000A16808432D49886007
:1057900008E0B8F1800F05D12A48806820F0F000B9
:1057A000284988602648006800F00F00A84219D9EF
:1057B0002348006820F00F00284321490860FFF7C4
:1057C0001FF9074608E0FFF71BF9C01B41F28831BB
:1057D000884201D9032035E71948006800F00F001E
:1057E000A842F0D1207800F00400042807D1154821
:1057F000806820F4E060E1680843124988602078FE
:1058000000F00800082808D10E48806820F4605095
:10581000216940EAC1000B49886000F047F8094956
:105820008968C1F30311094A515C01F01F01C840A6
:105830000749086007480068FFF7FAFB02E7000025
:10584000002002400010024000B4C40400C300085D
:1058500014010020EC00002001480068704700009F
:105860001401002000B5FFF7F7FF05498968C1F36F
:105870000221044A515C01F01F01C84000BD000034
:105880000010024010C3000800B5FFF7E5FF05490E
:105890008968C1F3C221044A515C01F01F01C8406C
:1058A00000BD00000010024010C3000870B5224D7A
:1058B000AD6805F00C05042D01D120483AE01E4DDD
:1058C000AD6805F00C05082D01D11D4832E01A4DD8
:1058D000AD6805F00C050C2D2BD1174DED6805F0CA
:1058E0000304154DED68C5F303156A1C022C0CD09A
:1058F000032C09D1124DB5FBF2F50F4EF668C6F335
:10590000062605FB06F10AE000BF0C4DB5FBF2F5DB
:10591000094EF668C6F3062605FB06F100BF00BF78
:10592000054DED68C5F341656D1C6B00B1FBF3F0EF
:1059300000E0002070BD0000001002400024F400D0
:1059400040787D012DE9F843044614B90120BDE8F3
:10595000F883207800F00100002865D0FC488068BA
:1059600000F00C07FA48C06800F003060C2F01D1C4
:10597000032E01D0082F0AD1F548006800F400304A
:10598000002851D0606800284ED10120DFE700BF19
:105990006068B0F5803F06D1ED48006840F4803083
:1059A000EB4908601AE06068B0F5A02F0BD1E84819
:1059B000006840F48020E64908600846006840F42A
:1059C000803008600AE0E248006820F48030E04956
:1059D00008600846006820F48020086000BF606806
:1059E00088B1FFF70DF8054606E0FFF709F8401B00
:1059F000642801D90320AAE7D548006800F40030E4
:105A00000028F2D010E0FEF7FBFF054606E0FEF7A7
:105A1000F7FF401B642801D9032098E7CC480068B1
:105A200000F400300028F2D1207800F002000228B3
:105A300060D1C748806800F00C07C548C06800F016
:105A400003060C2F01D1022E01D0042F18D1C0481B
:105A5000006800F4806018B1E06808B9012076E7BA
:105A6000BB48406820F0FE40217C40EA0160B84914
:105A70004860B8480068FFF7DBFA18B3012066E712
:105A8000E06800B3B248006840F48070B049086034
:105A9000FEF7B6FF054606E0FEF7B2FF401B022800
:105AA00001D9032053E7AA48006800F48060002869
:105AB000F2D0A748406820F0FE40217C40EA016017
:105AC000A349486016E0A248006820F48070A0490D
:105AD0000860FEF795FF054606E0FEF791FF401BC4
